:1000000000800020BD010000B52900007929000012
:100010007929000079290000792900007929000058
:10002000792900007929000079290000B52900000C
:10003000B529000079290000B529000069290000D0
:10004000B5290000B5290000B5290000B529000038
:10005000B5290000B5290000B5290000B529000028
:10006000B5290000B5290000B5290000B529000018
:10007000B5290000B5290000B5290000B529000008
:10008000B5290000B5290000B5290000B5290000F8
:10009000B5290000B5290000B5290000B5290000E8
:1000A0004528000055280000B5290000B5290000AA
:1000B000B5290000B5290000B5290000B5290000C8
:1000C000B5290000B5290000B5290000B5290000B8
:1000D000B5290000B5290000B5290000B5290000A8
:1000E000B5290000B5290000B5290000B529000098
:1000F000B5290000FD450000B5290000614D000054
:10010000B5290000DD520000B5290000B529000026
:10011000B5290000B5290000B5290000B529000067
:10012000B5290000B5290000B5290000B529000057
:10013000B5290000B5290000B5290000B529000047
:10014000B5290000B5290000B5290000B529000037
:10015000B5290000B5290000B5290000B529000027
:10016000B5290000A92F0000B5290000B52900001D
:10017000B5290000B5290000B5290000B529000007
:10018000B5290000B5290000B5290000B5290000F7
:10019000B5290000B5290000B5290000B5290000E7
:1001A000B5290000B5290000B5290000B5290000D7
:1001B000B5290000B5290000B5290000574B4CF2C5
:1001C000205210B51A804DF628121A8000BF00BFC9
:1001D00002F0F4FB524B4FF010621A60514A9A60E1
:1001E000514ADA60A3F53043203B1A6812F480725A
:1001F00004D14E490A604FF4A8521A604C4B1A7849
:10020000110703D51A7842F008021A70494B4A4C7C
:100210004A482A221A704A4A00239918A14203D256
:10022000195899500433F8E7464B474900228B424E
:1002300002D243F8042BFAE74448454900235A58B0
:100240001A500433B3F5DE7FF9D1424B424A802184
:1002500003F8011B9342FBD1404B3C4A1A60404BD0
:100260008A221A70A3F5805324225A70A0221A7091
:100270009A799207FCD59A79D406FCD4394A9379B5
:1002800003F00C03082B374BF9D103221A714022DB
:100290005A719A799006FCD5324A9179314B4906C8
:1002A000FBD5314A314911600221516020221A7078
:1002B0009A7902F00C020C2AFAD12D4B2D4A1A60C1
:1002C0002D4B2E4A1A6000225A60072243F8042C54
:1002D0002B4AC3F80C2D62B602F026FD134B1B68A7
:1002E000DA0705D5274802F0E5FB274B274A1A60B5
:1002F000274B1B785B0609D5234C244A236893427D
:1003000004D1204802F0D6FB0023236007F0B6FAA0
:1003100002F05AFB03F024FCFEE700BF0E2005406C
:1003200030800440823F04000100002B14D00340C1
:1003300002D0074000E007400497FF1F008900003B
:100340006087FF1F0497FF1F409BFF1F0082FF1F56
:100350000000000000E400E05FE400E008ED00E0E1
:100360000050064000400640448004400000030165
:1003700004800440C010050014E000E0FF76010096
:1003800000002020559BD0001CE00340A5C3945AD8
:1003900000F00740FFFFFFFFFFFFFFFFFFFFFFFF32
:1003A000FFFFFFFFFFFFFFFFFFFFFFFFFFFFFFFF5D
:1003B000FFFFFFFFFFFFFFFFFFFFFFFFFFFFFFFF4D
:1003C000FFFFFFFFFFFFFFFFFFFFFFFFFFFFFFFF3D
:1003D000FFFFFFFFFFFFFFFFFFFFFFFFFFFFFFFF2D
:1003E000FFFFFFFFFFFFFFFFFFFFFFFFFFFFFFFF1D
:1003F000FFFFFFFFFFFFFFFFFFFFFFFFFFFFFFFF0D
:10040000FFFFFFFFFFFFFFFFFFFFFFFFDEF9FFFF23
:1004100010B5054C237833B9044B13B10448AFF33E
:1004200000800123237010BD0497FF1F000000000F
:100430000089000008B5064B1BB106480649AFF31A
:1004400000800648036813B1054B03B1984708BD07
:1004500000000000008900000897FF1F0497FF1F9D
:10046000000000000122014B1A707047FC97FF1F2B
:1004700038B505460C46084607F0EAFC02462B68EC
:100480005B6828462146984738BD00BF38B504460A
:100490000D46084607F0DCFC024623685B682046F0
:1004A000294698470546204603F06AFB284438BD94
:1004B00030B583B005469DF81810009103F0ACFBF1
:1004C0000446284603F05CFB204403B030BD00BF67
:1004D00000238362C362036343638363C363036470
:1004E00043648364C3640365436501290CBF6923C6
:1004F00068230370831C836100F10803C36100F16A
:100500000E03036200F1140343627047064B1B782D
:1005100013B1012B04D07047044A054B1A60704791
:10052000044A034B1A6070474888FF1FFFEBBF4027
:10053000E497FF1FFFEBBF3F0B4B1B78032B12D839
:10054000DFE803F002060A0E084A094B1A607047FA
:10055000084A074B1A607047074A054B1A607047F4
:10056000064A034B1A6070477C97FF1F0000FA3B56
:100570008097FF1F00007A3C0000FA3C00007A3DA3
:100580000D4B1B78032B16D8DFE803F002070C1184
:100590004FF06252094B1A6070474FF06452074B9C
:1005A0001A6070474FF06652044B1A6070474FF064
:1005B0006852024B1A6070478897FF1F2097FF1FF1
:1005C0002DE9F04383B03B4C23685B6820463A49F1
:1005D0000B229847204603F0D3FA01244FF000087D
:1005E000364D344FDFF8EC90E6B22846314601F044
:1005F00007FB29696A7B002300932846012301F049
:10060000D7FDF8B93B685B6838462D491E229847EC
:100610000F2E05D83B685B6838462A490122984767
:10062000384621461022002303F0BAFA3B685B6883
:100630003846254903229847384603F0A1FA08F1C5
:10064000010818E0042816D13B685B683846494623
:100650001A2298470F2E05D83B685B68384619491F
:1006600001229847384621461022002303F098FAC9
:10067000384603F085FA01347F2CB5D1B8F1000F6C
:100680000AD10C4C23685B68204610491522984714
:10069000204603F075FA09E0064C23685B682046A3
:1006A0000B4905229847204603F06AFA03B0BDE8DB
:1006B000F08300BF2099FF1FE08100001498FF1F06
:1006C000EC8100000C8200001082000030820000EB
:1006D0004882000014820000704700BFFFFFFFFF48
:1006E00008B5134B186806F0D1FA0FA3D3E900231D
:1006F00006F020FB06F0D8FD0E4B18600E4B186874
:1007000006F0C4FA08A3D3E9002306F013FB06F0B1
:10071000CBFD0A4B18600A480021FFF7D9FE0948B3
:100720000121FFF7D5FE08BDAA4C58E87AB6EB3F89
:100730004C88FF1F8497FF1FF497FF1FF897FF1F38
:100740002497FF1F8C97FF1F70B582B003460E469B
:1007500015460B4C2046194601F052FA2046314608
:1007600000F0C0FE2046294600F0BCFE2169627BF5
:10077000002300932046012301F01AFD02B070BD52
:100780001498FF1F2DE9F04182B007460D469046B0
:100790001E46194C2046394601F032FA20462946B9
:1007A00000F0A0FE2169627B0025009520462B46C3
:1007B00001F0FEFC2069617B0123009301953A461C
:1007C000434601F009FD2069D0F83821D0F83431D2
:1007D0009A420DD02C46084FE5B201F01BFD705532
:1007E0003869D0F83811D0F8342101349142F3D16E
:1007F00002B0BDE8F08100BF1498FF1F30B583B090
:100800000446007837211222FFF79EFF0C200A21B0
:100810000022FFF799FF0A2002F070FA0C200A214B
:100820000F22FFF791FF0A2002F068FA0C20102136
:10083000032201ABFFF7A6FF256A9DF8040080386C
:1008400006F03CFE4FF06E5106F08CFE4FF07E51EC
:1008500006F080FD06F0D6FF2880256A9DF8050089
:10086000803806F02BFE4FF06E5106F07BFE4FF005
:100870007E5106F06FFD06F0C5FF6880256A9DF881
:100880000600803806F01AFE4FF06E5106F06AFE40
:100890004FF07E5106F05EFD06F0B4FFA8800C20FC
:1008A0000A210022FFF750FF0A2002F027FA0A4B24
:1008B0001A780A4B1B7843EA02120C200A21D2B2A2
:1008C000FFF742FF0A2002F019FA207837211022A0
:1008D000FFF73AFF03B030BD4888FF1F5088FF1F65
:1008E0002DE9F04F8DB0044600786B218022FFF790
:1008F0002BFF642002F002FA20786B210122FFF71F
:1009000023FF20786C210022FFF71EFFC82002F091
:10091000F5F9207838210022FFF716FF20782321EF
:100920000022FFF711FF20786B210022FFF70CFF58
:10093000207824210022FFF707FF20786A21002277
:10094000FFF702FF20786A210C22FFF7FDFE0F203F
:1009500002F0D4F920781A210122FFF7F5FE207861
:1009600019210022FFF7F0FE20781B210022FFF75B
:10097000EBFE20781C210022FFF7E6FE20786A219A
:100980004022FFF7E1FE207823217822FFF7DCFEEA
:10099000282002F0B3F9207823210022FFF7D4FEAB
:1009A00020787221022206ABFFF7ECFE9DF818704A
:1009B0009DF8193043EA0727244BA3FB0717FF08CC
:1009C000039745D000252E46A8462F46AB46AA469B
:1009D000A946207874210C2206ABFFF7D3FE9DF8C0
:1009E00018209DF8193043EA02230BFA83FB9DF887
:1009F0001A209DF81B3043EA02230AFA83FA9DF875
:100A00001C209DF81D3043EA022309FA83F99DF862
:100A10001E209DF81F3043EA022306FA83F69DF854
:100A200020209DF8213043EA022308FA83F89DF83C
:100A300022209DF8233043EA022307FA83F7013589
:100A4000ABB2039A9A42C4D808E000BFABAAAAAAE4
:100A50000026B0463746B346B246B146039B9BFBE1
:100A6000F3FB9AFBF3FA99FBF3F996FBF3F698FB89
:100A7000F3F897FBF3F70397B9F1000FCCBFA9F593
:100A8000804909F580497242002AB8BF03329310A9
:100A9000C2F387228DF818208DF81930C8F10003B1
:100AA000002BB8BF033399109B128DF81A308DF8C4
:100AB0001B1003994B42002BB8BF033399109B12B4
:100AC0008DF81C308DF81D1020781321FFF73CFEA7
:100AD000207814219DF81920FFF736FE2078152183
:100AE0009DF81A20FFF730FE207816219DF81B2074
:100AF000FFF72AFE207817219DF81C20FFF724FE1F
:100B0000207818219DF81D20FFF71EFE824D2B68CE
:100B10005B682846814913229847304606F0CEFC90
:100B20007F4906F01FFD7F4906F0D0FD06F0AEF8C4
:100B300002460B4602260096284603F06DF82B6805
:100B4000794F5B682846394632469847404606F05A
:100B5000B5FC734906F006FD724906F0B7FD06F0D4
:100B600095F802460B460096284603F055F82B6888
:100B70005B682846394632469847039806F09EFC43
:100B8000674906F0EFFC674906F0A0FD06F07EF825
:100B900002460B460096284603F03EF8284602F02F
:100BA000EFFF20787721324606ABFFF7EBFD9DF88B
:100BB00018709DF8193043EA0727099720787A21A1
:100BC000324606ABFFF7DEFD9DF818509DF8193050
:100BD00043EA05250A9520787D21324606ABFFF7CA
:100BE000D1FD9DF818109DF8193043EA01210B91B1
:100BF00000238DF814308DF815308DF81630012053
:100C000009AA52F8232012F0010F1CBF05AA98541C
:100C10000133032BF4D15B46BBF1000FB8BF0BF1DE
:100C20000703A7EBE3075346BAF1000FB8BF0AF179
:100C30000703A5EBE3054B46B9F1000FB8BF09F177
:100C40000703A1EBE3033A128DF818209DF8142056
:100C500017438DF819702A128DF81A209DF8152067
:100C600015438DF81B501A128DF81C209DF8162084
:100C700013438DF81D30284C23685B6820462B49B0
:100C80001B229847584606F019FC254906F06AFCD5
:100C90004FF0625106F066FC05F0F8FF02460B4685
:100CA00002250095204602F0B7FF23681E4E5B68C0
:100CB000204631462A469847504606F0FFFB184921
:100CC00006F050FC4FF0625106F04CFC05F0DEFFE0
:100CD00002460B460095204602F09EFF23685B68A3
:100CE000204631462A469847484606F0E7FB0C491D
:100CF00006F038FC4FF0625106F034FC05F0C6FFF8
:100D000002460B460095204602F086FF204602F080
:100D100037FF0DB0BDE8F08F2099FF1F5082000013
:100D200000007A44000003436482000068820000EF
:100D300070B582B006460D460F4C2046314600F095
:100D40005FFF2046294600F0CDFB2169627B00252C
:100D5000009520462B4601F02BFA2069617B012388
:100D600000930195324601F037FA206901F052FAFA
:100D7000C0B202B070BD00BF1498FF1F08B5007864
:100D80007521FFF7D5FF712814BF0020012008BD91
:100D900038B50446007837211222FFF7D5FC0C2025
:100DA0000021FFF7C5FF0546207837211022FFF705
:100DB000CBFC482D14BF0020012038BD10B50446DF
:100DC00000786B210022FFF7BFFC642001F096FF42
:100DD00020786B210122FFF7B7FCC82001F08EFFBD
:100DE00020781A210322FFF7AFFC20781921042272
:100DF000FFF7AAFC20781B21FFF79AFF20F01A00CA
:100E0000194B1A7840EAC20220781B2102F0FD0239
:100E1000FFF79AFC20781C21FFF78AFF20F01800CA
:100E2000124B1A7840EAC20220781C21D2B2FFF796
:100E30008BFC20781D21FFF77BFF00F0F00220786B
:100E40001D2142F00302FFF77FFC2078372110229A
:100E5000FFF77AFC207838210122FFF775FC642027
:100E600001F04CFF10BD00BF7C97FF1F8897FF1F4C
:100E70002DE9F04F97B0044600258DF808508DF805
:100E800009508DF80A508DF80B508DF80C508DF8E4
:100E90000D500495059506950795089509950A95B1
:100EA0000B950C950D950E950F95007819212A46F6
:100EB000FFF74AFC20781A210222FFF745FC207830
:100EC0001B212A46FFF740FC20781D210222FFF754
:100ED0003BFC20781C212A46FFF736FCC8253B271F
:100EE000062620783946324602ABFFF74BFC9DF8C8
:100EF00008209DF8093043EA0222079B03FA82F397
:100F000007939DF80A209DF80B3043EA0222089BC4
:100F100003FA82F308939DF80C209DF80D3043EA04
:100F20000222099B03FA82F3099320784321324677
:100F300002ABFFF727FC9DF808209DF8093043EA33
:100F40000222049B03FA82F304939DF80A209DF881
:100F50000B3043EA0222059B03FA82F305939DF8C6
:100F60000C209DF80D3043EA0222069B03FA82F31F
:100F70000693013DB5D10023BD4807AA995880FBCF
:100F80000165C917C1EBA511995004AA995880FBB6
:100F90000165C917C1EBA511995004330C2BECD195
:100FA00020781C21E022FFF7CFFB20781B21E022D4
:100FB000FFF7CAFB192001F0A1FEC8253B27062632
:100FC00020783946324602ABFFF7DCFB9DF808205B
:100FD0009DF8093043EA02220A9B03FA82F30A933E
:100FE0009DF80A209DF80B3043EA02220B9B03FA7E
:100FF00082F30B939DF80C209DF80D3043EA0222FA
:101000000C9B03FA82F30C9320784321324602AB07
:10101000FFF7B8FB9DF808209DF8093043EA02224B
:101020000D9B03FA82F30D939DF80A209DF80B3077
:1010300043EA02220E9B03FA82F30E939DF80C20E2
:101040009DF80D3043EA02220F9B03FA82F30F93BF
:10105000013DB5D1002386480AAA995880FB016555
:10106000C917C1EBA51199500DAA995880FB0165CC
:10107000C917C1EBA511995004330C2BECD1207882
:101080001C210022FFF760FB20781B210022FFF7C4
:101090005BFB192001F032FE20780D21FFF748FE9E
:1010A000834620780E21FFF743FE824620780F21E9
:1010B000FFF73EFE814620780021FFF739FE80468B
:1010C00020780121FFF734FE074620780221FFF740
:1010D0002FFE064662A5D5E90045584606F0EAF916
:1010E0004FF07E5106F034F905F0D0FD02460B4674
:1010F0002046294604F0B8FB5BA3D3E9002305F0A2
:1011000019FE06F0D1F81090504606F0D3F94FF0D2
:101110007E5106F01DF905F0B9FD02460B4620464A
:10112000294604F0A1FB50A3D3E9002305F002FEF9
:1011300006F0BAF81190484606F0BCF94FF07E511F
:1011400006F006F905F0A2FD02460B4620462946A8
:1011500004F08AFB44A3D3E9002305F0EBFD06F07D
:10116000A3F81290404606F0A5F94FF07E5106F024
:10117000EFF805F08BFD02460B462046294604F0A9
:1011800073FB39A3D3E9002305F0D4FD06F08CF8F6
:101190001390384606F08EF94FF07E5106F0D8F8DD
:1011A00005F074FD02460B462046294604F05CFB20
:1011B0002DA3D3E9002305F0BDFD06F075F81490CA
:1011C000304606F077F94FF07E5106F0C1F805F091
:1011D0005DFD02460B462046294604F045FB22A34E
:1011E000D3E9002305F0A6FD06F05EF8159021482E
:1011F00003685B68204925229847002425461D4F37
:101200001E4EDFF87C800AABE05807ABE358C01AEB
:1012100006F054F9314606F0A5F910ABE15806F096
:1012200055FA314606F094F805F030FD02460B46BB
:1012300002210091384602F0EFFC012D05DC3B68ED
:101240005B68384641460222984701350434032D35
:10125000D9D1084C23685B68204613E0AFF30080C7
:10126000000000C0F528F03F000000000078A44016
:101270001F85EB512099FF1FD88200000000C84253
:1012800064820000234900229847204602F078FC3F
:1012900023685B68204620491C2298470024254685
:1012A0001E4F1F4EDFF87C800DABE05804ABE358B7
:1012B000C01A06F003F9314606F054F916AB234480
:1012C00053F80C1C06F002FA314606F041F805F01E
:1012D000DDFC02460B4602210091384602F09CFCE0
:1012E000012D05DC3B685B68384641460222984781
:1012F00001350434032DD7D1084C23685B682046A0
:10130000044900229847204602F03AFC17B0BDE895
:10131000F08F00BF0C840000008300002099FF1FA5
:101320000000C84264820000F0B587B0554B1869D0
:10133000597B0024009401940294534B039301259C
:1013400004952246234600F007FB4FF47A6001F033
:10135000D5FC4E4B1878214601F0EEFB4C4C207822
:10136000294601F0E9FB2078294601F0B3FBFFF79D
:1013700027F94848FFF702FD074618B14648474994
:10138000FFF784F84348FFF703FD064618B14248CB
:101390004349FFF77BF84348FFF7F0FC054618B1D7
:1013A0003D484149FFF772F83E48FFF7F1FC04461B
:1013B00018B139483D49FFF769F8002F58D0002E81
:1013C00056D0002D54D0002C52D0364D2846FFF771
:1013D0004FFD4FF47A7001F091FC2846FFF7D0F8EA
:1013E0002846FFF7A9F82846FFF790F82846FFF7A8
:1013F00077FA2846FFF7E2FC274C20462C49FFF7F6
:1014000045F82846FFF7FAF920462A49FFF73EF843
:1014100020462949FFF72CF8284E306805F036FCA5
:1014200002460B46022500952046FFF741F820466C
:101430002349FFF71DF8706805F028FC02460B46AB
:1014400000952046FFF734F820461E49FFF710F8B4
:10145000B06805F01BFC02460B4600952046FFF7DE
:1014600027F80A4B18781849032201F0A5FB06E07B
:10147000094803685B68154920229847FEE707B0D2
:10148000F0BD00BF1498FF1F801A06004088FF1FA0
:101490004488FF1F2497FF1F2099FF1F208300000F
:1014A0003C8300008C97FF1F648300008083000052
:1014B000A8830000C4830000E8830000E897FF1FB2
:1014C000108400003884000065040000608400007F
:1014D0000369D3F83801D3F83431C01A704700BF1C
:1014E000704700BF0369D3F84422B2F5817F09D861
:1014F000D3F84422501CC3F84402134483F83C112F
:1015000001207047012303710020704730B4036944
:10151000D3F84442B4F5817F1ED8D3F84442C4F5D1
:1015200081740134D3F844522B4403F59E739442E2
:1015300002D201220271224632B18D1811F8014BFC
:1015400003F8014BA942F9D10369D3F844121144BD
:10155000C3F84412104602E001230371002030BC9E
:10156000704700BF38B50446084B0360036993F821
:101570004822022A08D1D3F864522DB1284602F03D
:10158000D5FA284602F0F8FA204638BD90840000CB
:1015900010B4002202714FF47A7484600273064A18
:1015A000026041734FF41B74044A04FB0121016182
:1015B0005DF8044B704700BF908400005488FF1F03
:1015C00070B504460D46C3681B7813F0200F40F039
:1015D000B680836880211970C3681221197090F851
:1015E0004932012B0BD022B9002380F84832012068
:1015F00070BD531EDBB2012B00F2A38000E001227C
:1016000025B94FF08071504B196005E0012D03D1D1
:101610004FF000714C4B1960022A40F08C80D4F8D6
:1016200064624EB9082002F0A3FA0646002102F0D7
:101630001FFAC4F864627EB13379102B0CD13046A6
:1016400002F074FA304602F097FA0023C4F86432CC
:10165000012084F8480270BD002D30D133689A8B88
:1016600092B2998B42F008029A83D4F864321979C5
:1016700010313648364A42F821001A7953119B003E
:1016800003F1604303F5614302F01F02012101FAF7
:1016900002F21A60D4F864321B689A8B92B2998B6A
:1016A00042F002029A83D4F864321B7903F180433A
:1016B00003F5043300221A7096221A7033E0012DCC
:1016C00031D1D4F864321B689A8B92B2998B42F074
:1016D00008029A83D4F86432197910311D481C4AE3
:1016E00042F821001A7953119B0003F1604303F57E
:1016F000614302F01F02012101FA02F21A60D4F8DC
:1017000064321B689A8B92B2998B42F002029A83E0
:10171000D4F864321B7903F1804303F504330022CB
:101720001A7097221A70002384F85A32022384F820
:101730004832012070BD012084F8480270BD0020AD
:1017400070BD012070BD00BF00E100E04528000031
:101750000082FF1F5528000070B4254BA3FB0145F4
:10176000AD092D02A3FB02439B09B5FBF3F5B5F5CB
:10177000A05F38DB1F4A012302E00133382B05D07C
:1017800052F8044FB5EB042FF7DA93B15A1E194CF7
:1017900054F82260A5EB0626002EB8BF764254F816
:1017A0002340A5EB0425002DB8BF6D42AE42D8BF43
:1017B00013464268104CE45C14700E4A52F8233011
:1017C000B1FBF3F3C0F84C320C4B994203D9836957
:1017D00004221A7009E08369094AA2FB0101C1F3DE
:1017E0000751197001E00023E3E770BC704700BFA8
:1017F000D34D6210A884000088850000FF6BDC02D6
:10180000819F5E162DE9F84F06460D4617461C4689
:101810009DF82830002B00F08480C268127812F006
:10182000200F75D17DE0012F05D9012D73D1BA1E8E
:10183000012A09D902E04FF0010901E04FF0000947
:10184000B9F1000F02D169E04FF00109002B32D04D
:1018500096F84B32002B14BF4FF0020B4FF0000BE9
:1018600096F84A32032B26D8DFE803F0020B141D4A
:101870001120594601F060F91020594601F05CF939
:1018800019E01220594601F057F91320594601F08A
:1018900053F910E01E20594601F04EF91D2059461B
:1018A00001F04AF907E01F20594601F045F91A20D6
:1018B000594601F041F98DB917B1012F07D00DE05C
:1018C000214BC3F80080043BC3F8008019E01F4B94
:1018D000C3F80080043BC3F8008012E0012D10D152
:1018E000022F08D0032F0CD1194BC3F800A00433EA
:1018F000C3F800A005E0174BC3F80080043BC3F811
:10190000008086F84A7286F84B424846BDE8F88F58
:101910000020BDE8F88F0020BDE8F88F4846BDE8FC
:10192000F88F002C40F203220CBF4FF41978904638
:1019300040F2036240F26461002C0CBF8A4692467A
:10194000002D7FF472AF6EE704A004400CA00440A9
:1019500000D004402CB0044070B582B004469DF81D
:1019600018000D4629B92F490E6846F040060E6052
:1019700006E0012904D12B490E6846F080060E606E
:1019800084F84922002184F851123AB9636920226F
:101990001A7022681170E269117011E06269002802
:1019A00037D12DE05B00DBB21370E2694300DBB29C
:1019B00005E04000C0B21070E2695B00DBB213705A
:1019C00000230093204629469DF81C209DF82030D6
:1019D000FFF718FF20461449099AFFF7BDFE20467D
:1019E00029469DF82820FFF7EBFD94F849321BB9F2
:1019F000A36880221A7012E0A368C0221A700EE059
:101A00002021117022685B00DBB21370E2690023B1
:101A1000D5E72821117022689842C3D8C9E702B0DF
:101A200070BD00BF34800440006CDC022DE9F04F33
:101A300083B082468B4690F84A32032B4BD8DFE8BE
:101A400003F02D3002051E261D242CE01F261A242B
:101A500029E02046494601F03DF82B46013B7FF442
:101A6000FDAF2046414601F035F82B46013B7FF49F
:101A7000FDAF304601F052F818B9013F17F0FF07EB
:101A8000E7D100218AF851129AF84A229AF84B328B
:101A9000009150465946FFF7B5FE1CE01126102470
:101AA00001E0122613249AF84B32002B304614BF63
:101AB0000221002101F040F82046012101F00AF83E
:101AC0002046012101F038F80B274FF00009A0252E
:101AD0004FF00108CDE703B0BDE8F08F2DE9F843E2
:101AE000054688461646994601F0E6F80EB9D5F83F
:101AF000686201F0E1F80746AB681A7812F0200F2F
:101B00000ED0B4221A7032E0EC68247814F0200F62
:101B100006D1002385F84932AB68B0221A7006E07E
:101B2000002EF1D001F0C8F8C01B8642ECD8AB689B
:101B30001B7813F0200F0ED128464146FFF776FFA1
:101B4000EB681B7813F0200F05D1002385F849328C
:101B5000AB68B0221A70AB681B7803F0200303F067
:101B6000FF0023B9042385F85132BDE8F88395F8C6
:101B70004832013BDBB2012B38D800F02FFFB8F11F
:101B8000000F03D0B8F1010F03D005E01A4B1B780A
:101B900004E01A4B1B7801E0174B1B78834228DBCB
:101BA0000F2804DC012089F80000BDE8F883B8F1B3
:101BB000000F03D0B8F1010F08D00FE0A0F1100220
:101BC000D2B20D4B1A700120BDE8F883A0F11002CB
:101BD000D2B20A4B1A700120BDE8F883A0F11002BE
:101BE000D2B2054B1A700120BDE8F8830120BDE890
:101BF000F8830120BDE8F88318E400E019E400E070
:101C00000369490083F83C1103690122C3F84422A7
:101C100000230371026982F8513270472DE9F043C5
:101C200083B0054614461F4600238DF80730D0F8D0
:101C30004432002B00F0C7800FB9D0F86872EB680F
:101C400012221A7028463A460DF10703FFF746FFA5
:101C5000002800F0B88095F848321BB19DF80720A5
:101C6000002A53D001F028F88146012385F851322B
:101C700085F8504200264FF002082AE02B69AA1985
:101C800092F83C211A70EC68217811F0020FFBD019
:101C900084F80080EB681978C9B211F0100F08D0F1
:101CA000072285F8512210221A70AB6880221A7020
:101CB00089E011F0010F0BD01EB9052385F85132D0
:101CC00002E0062385F85132AB6880221A707AE070
:101CD0000136D5F844329E4207D2002FCED000F014
:101CE000EBFFC9EB00008742C8D8D5F84432B342B5
:101CF0008CBF0423002385F8513295F85032012B14
:101D0000AB680CBF8022B0221A705CE05A1ED2B2BF
:101D1000012A58D8012285F8512285F85042002224
:101D2000C5F84022022B14D1D5F84432042B18D820
:101D30000FE013689B6833B9136800210120187203
:101D400059729972D972136800221A765A769A7665
:101D5000DA76AB68F0221A702B6995F83C211A707C
:101D600031E0012385F85A32D5F8642205F59F70D9
:101D7000D5F84442033C11680B68002308601168E1
:101D8000012008714B711168CB71116808724B7298
:101D90008B72CB7211686042C8601068C18BA1B2AF
:101DA000C1831268D08AD182D5F86422296910686B
:101DB0000469016110680375437510688371B1F19E
:101DC000804FB9D3B5E703B0BDE8F0832DE9F04308
:101DD00083B0044616469DF828700B9D00208DF8B0
:101DE0000700002B00F04D81B3F5827F03D3082359
:101DF00084F8513245E1C4F854320023C4F8343138
:101E0000C4F838310DB9D4F86852E36812221A7058
:101E100020462A460DF10703FFF760FE002800F078
:101E2000308194F8483223B19DF80720002A00F051
:101E3000958000F041FF8046022384F8513284F8F7
:101E400050722369720042F00102D2B21A70E26845
:101E5000137813F0020FFBD002231370E26813789B
:101E6000DBB213F0100F08D0072384F8513210238F
:101E70001370A36880221A7003E113F0010F06D0DB
:101E8000052384F85132A36880221A70F9E00323F5
:101E900084F85132D4F85432012BA3680CBFA82225
:101EA000A0221A7023691B780226002745E00B78D0
:101EB00013F0020FFBD00E70002D00F0AA8000F08E
:101EC000FBFEC8EB000085428CBF00230123D4F841
:101ED00038110231D4F85422914205D03BB194F824
:101EE000592222B900E03B46A26882F80090D4F85B
:101EF00038110131D4F85422914280F09F80002B98
:101F000000F0918094F85922002A40F0AA808AE0DB
:101F1000042284F8512201E084F8517294F850228E
:101F2000012A06D12022013A7FF4FDAFA268802168
:101F3000117023B1012384F859324FF0A809D4F865
:101F40003821D4F854329A4280F09B8094F8513270
:101F5000DBB2032B40F09580E168A8E75A1ED2B2AD
:101F6000012A00F28E80022284F8512284F85072F5
:101F7000934244D1D4F85432042B40D9012384F83D
:101F80005A32D4F86432216918680268002201606C
:101F90001868027142711868C271B1F1804F02D3A2
:101FA0001A68926832B91A680021012010725172C1
:101FB0009172D1721A680023137353739373D3739E
:101FC000D4F8642204F13005D4F8540201381168C1
:101FD0000F690D61116801250D754B7511688B71C5
:101FE00011680D724B728B72CB721368414299610A
:101FF0001368D98B81B2D9831368DA8AD982A3682E
:10200000F0221A702369720042F00102D2B21A70F3
:1020100037E0D4F838210232D4F854329A423FF4EF
:1020200062AF3B4663E722691178D4F83821501C2F
:10203000C4F83801224482F830107AE784F85972E3
:10204000A268B021117022691178D4F83821501C8F
:10205000C4F83801224482F83010002B3FF45CAF02
:1020600056E784F85972A268B0211170226911787C
:10207000D4F83821501CC4F83801224482F83010BA
:1020800046E703B0BDE8F083036993F85132043B9F
:10209000042B0CD8DFE803F009100507030001202A
:1020A0007047032070470420704704207047007970
:1020B000003018BF012070470220704790F851325D
:1020C00013F0FF0F1BD090F85132DBB2052B18D064
:1020D00090F85132DBB2062B15D090F85132DBB2BA
:1020E000072B12D090F85132DBB2042B0FD090F8AE
:1020F0005102C0B2082814BF0020012070470120FF
:10210000704701207047012070470120704701206F
:10211000704700BF70B50446154600F0CDFD0DB9FF
:10212000D4F8685200F0C8FD06462046FFF7C6FF07
:1021300000283AD1002DF8D000F0BEFD801B85426A
:10214000F3D800F0B9FD801B854210D894F84832CE
:10215000022B0CD194F85A3213F0FF0F07D020460F
:10216000FFF7ACFF0028FAD0042384F8513294F82A
:102170005132DBB2012B09D094F85132DBB2022B81
:1021800004D094F85132DBB2032B02D1042384F83B
:1021900051328023013B7FF4FDAF94F8513213F0AC
:1021A000FF0F14BF0020012070BD002DDFD0C8E755
:1021B000F8B507460E461546069C084611461A46CF
:1021C0002346FFF72BFD304629462246FFF7A2FFA4
:1021D0003846FFF759FFF8BD70B582B004460D468A
:1021E0001E468BB19DF8183000930799019129463E
:1021F0003346FFF7EBFD20462946079AFFF78AFF93
:1022000020B1D4F8380102E0002000E0002002B044
:1022100070BD00BFD0F83421D0F838319A4208D2CE
:10222000D0F834315A1CC0F83421184490F83000EA
:1022300070474FF0FF30704708B50069FFF7EAFFBD
:1022400008BD00BFD0F83421D0F838319A423DBFE4
:10225000D0F83431C01890F830004FF0FF3070479C
:1022600008B50069FFF7EEFF08BD00BF38B50446AA
:10227000C2681578EDB281680B78DBB213F0200FDD
:1022800000F0C38113F0100F00F0058190F85A326E
:10229000DBB2022B04D090F85A32DBB2032B4CD1C4
:1022A000D4F864120B689B8B03F080039BB2002B65
:1022B00000F0858294F85A32DBB2022B40F07F8224
:1022C00073E2137813F0800FFBD00A79B54B1A70C4
:1022D000002384F85A32D4F84432013BC4F8403227
:1022E0002369D4F84022224492F83C211A7020E05D
:1022F000AD4B1A680B7901219940114219D0AB4AB4
:102300001370D4F864321A79A94B1A70002384F838
:102310005A3215F0100F0CD0072384F85132E368BD
:1023200012221A70A36880221A700023C4F8403267
:1023300038BDE36802221A7038BD90F85132DBB222
:10234000012B56D115F0100F0DD0002380F85A3212
:10235000072180F8511212211170826880211170BA
:10236000C0F8403238BD15F0010F0FD0002380F8BF
:102370005A32D0F840321BB9052380F8513202E0BE
:10238000062380F8513280230B702EE0D0F84032C3
:102390000133C0F84032D0F8442293420AD30023DC
:1023A00080F8513290F85032012B0CBF8023B023BB
:1023B0000B701AE090F85A32DBB2012B0ED10223D7
:1023C00080F85A32F1230B70D0F864321A79794BC5
:1023D0001A70036990F83D211A7006E00369D0F87D
:1023E0004022024492F83C211A70E36802221A70DB
:1023F00038BD90F85132DBB2022B36D115F0100FF8
:1024000008D0072380F8513212231370836880228A
:102410001A7038BD15F0010F05D0052380F8513230
:1024200080230B701DE090F85A32DBB2012B0CD1E7
:10243000022380F85A32E1230B70D0F864321A7903
:102440005C4B1A7003691B780BE0032380F8513250
:10245000D0F85432012B0CBFE823E0230B70036942
:102460001B78E36802221A7038BD90F85132DBB253
:10247000042B0AD190F85032012B0CBF8023B023DB
:102480000B70C36802221A7038BD80230B70C368BA
:1024900002221A7038BD90F85A32DBB2022B04D0F7
:1024A00090F85A32DBB2032B56D1D4F864321A6852
:1024B000928B02F0800292B2002A00F0918194F88F
:1024C0005A22D2B2022A40F08B817FE11A79354B31
:1024D0001A70002384F85A3294F85132DBB2042B7C
:1024E0001CBF002384F85132A368B0221A70D4F8BC
:1024F0005432013BC4F83831D4F838315A1CC4F88E
:10250000382122691278234483F8302094F850321D
:10251000012B1DD12023013B7FF4FDAFA368802256
:102520001A7015E0204A12681B7901219940114266
:102530000ED01F4A1370D4F864321A791B4B1A70EC
:10254000002384F85A3284F85132A36880221A702A
:10255000E36802221A7038BDD0F838210232D0F870
:1025600054329A4200F0438190F85132DBB2042B8E
:1025700004D190F85932002B00F03981D4F8382179
:102580000132D4F854329A4280F03F8194F85132AB
:10259000DBB2042B40F02E8194F85932002B40F02E
:1025A000348127E11C8000402C8000401F800040C7
:1025B0001E8000401B800040002384F85132A36835
:1025C000B0221A70D4F838315A1CC4F83821226964
:1025D0001278234483F8302094F85032012B06D12E
:1025E0002023013B7FF4FDAFA36880221A7094F88A
:1025F0005132DBB2042B04D194F85932002B00F095
:102600000E81E36802221A7038BD15F0100F08D051
:102610001023137015F0400F06D1C36802221A7000
:1026200038BD15F0400F60D094F85132DBB20A2B60
:1026300004D1D4F85C32002B40F0F58015F0040F83
:102640001ED0092384F851320023C4F84432A36811
:10265000D0221A7023691B785B0884F85232D4F8B0
:10266000603203B19847D4F844320BB984F83C3156
:10267000236994F83C211A700123C4F8403230E0F9
:10268000002384F8583294F84A32012B05D11220E5
:102690006949032200F090FA15E02BB91120664930
:1026A000032200F089FA0EE0022B05D11E206349B7
:1026B000032200F081FA06E0032B04D11F205F49BA
:1026C000032200F079FA0A2384F851320023C4F877
:1026D0003831A368C0221A7023691B785B0884F81C
:1026E0005232E36802221A7038BD13F0100F20D066
:1026F00015F0010F15D1D0F84022D0F844329A429B
:1027000008D2D0F840325A1CC0F84022034493F853
:102710003C2100E0002223691A70A368D0221A70BD
:102720003FE0C0230B7003691B78002380F851320F
:1027300037E090F85132DBB20A2B32D1002380F817
:10274000583290F84A32012B05D112203A4903221F
:1027500000F032FA15E02BB911203749032200F0BE
:102760002BFA0EE0022B05D11E203449032200F083
:1027700023FA06E0032B04D11F203049032200F086
:102780001BFA23691B78DAB2D4F83831B3F5817FAC
:1027900007D8D4F83831591CC4F83811234483F8C9
:1027A0003020E36802221A7038BD0A79244B1A706F
:1027B000A368F0221A70032384F85A32B9E594F81A
:1027C0005A32DBB2032B7FF493AD7AE51A791C4BB6
:1027D0001A70A368E8221A70032384F85A32B7E605
:1027E00094F85A22D2B2032A7FF49CAE6EE6E82314
:1027F0000B70C3E6D4F838315A1CC4F8382122696A
:102800001278234483F83020F1E6002384F859320B
:1028100094F85132DBB2042B7FF4CEAECFE6012325
:1028200084F85932EDE60023C4F83431D4F8380185
:10283000D4F85C32984701E7092900001929000003
:102840001F80004008B502480021FFF70FFD08BDBA
:102850005488FF1F08B502480121FFF707FD08BD96
:10286000C08AFF1F10B50446C3681B7813F0200F01
:1028700024D1002380F8513290F84A32012B03D141
:10288000122000F0CDF80FE01BB9112000F0C8F8BD
:102890000AE0022B03D11E2000F0C2F804E0032B53
:1028A00002D11F2000F0BCF8D4F85C3253B30022F0
:1028B000C4F83421D4F83801984710BD90F8583244
:1028C0000133DBB280F85832012B03D890F849323B
:1028D000012B17D094F84A32012B03D1122000F0BB
:1028E0009FF810BD1BB9112000F09AF810BD022B03
:1028F00003D11E2000F094F810BD032B02D11F203D
:1029000000F08EF810BD00BF08B502480021FFF7A7
:10291000A9FF08BD5488FF1F08B502480121FFF731
:10292000A1FF08BDC08AFF1F70B50B4E30460021C5
:10293000FEF72EFE094D0A4C30462946224604F089
:1029400087FF084E30460121FEF722FE3046294619
:10295000224604F07DFF70BD1498FF1F651500002E
:102960003C88FF1F0098FF1F024B1A6801321A6053
:10297000704700BF2898FF1F08B50D4C236813F45B
:10298000802F01D000F010FB236813F4806F01D07A
:1029900001F034FE236813F4006F01D002F0E0F977
:1029A000236813F4805FE9D002F098FCE6E700BFEB
:1029B0003480044008B5FFF7DFFF00BF1022014B51
:1029C0001A80704700200540704700BF024A136814
:1029D00018441060184670472C8DFF1FEFF31383C7
:1029E000ABB9EFF31083ABB9EFF3058323B10F2B32
:1029F00005D9094A985C03E04FF4807000E000209C
:102A0000EFF311833BB1834238BF184670474FF054
:102A1000FF30704700207047F0E300E0704700BFD0
:102A20001D4B03EBC000436803F14042A2F5922224
:102A30007C2A18D903F14042A2F594227C2A14D9A9
:102A400003F14042A2F596227C2A10D903F14042BC
:102A5000A2F598227C2A0CD903F14042A2F59A22D1
:102A60007C2A08D970470D4906E00D4904E00D495C
:102A700002E00D4900E00D4972B61A6822F0877233
:102A800022F4803242F080721A60C3F38403084A51
:102A900041F8232062B67047C0850000308DFF1FCB
:102AA000688DFF1FB88DFF1FE88DFF1F088EFF1F69
:102AB0001D2A0000044B00221A6004490A60044ADF
:102AC000106010221A60704714D0034004D00340F5
:102AD00000D0034021281ED80F4B53F8303093F814
:102AE000802212F0FF0F08D019B1012283F8802054
:102AF0007047012283F800217047074B03EBC000A9
:102B0000436821B11A6842F003021A6070471A68DC
:102B100022F002021A607047C0850000212806D802
:102B2000044B53F8303093F80002C0B270470020D5
:102B3000704700BFC085000021283AD81D4B03EB29
:102B4000C0035B68012919D0042925D0194A52F81D
:102B50003020002082F8800219B94FF480721A6088
:102B60007047022903D140F203121A60704703290B
:102B70000CBF4FF4817200221A6070470D4A52F860
:102B80003020012182F880124FF4A2721A601A6874
:102B900022F020021A607047064A52F830200121C4
:102BA00082F880124FF4A2721A601A6842F0200272
:102BB0001A607047C085000070B50D46212861D8A5
:102BC000042A5FD8DFE802F00709050B03000B2396
:102BD00006E00A2304E0082302E00C2300E00923B6
:102BE0001E04294B03EBC0035C68236813F4E06FF9
:102BF00002D10021FFF7A0FF244B254AC3F89C21F6
:102C0000244AC3F8A021244AC3F8A421234AC3F8C4
:102C1000A821234AC3F8AC2104F14043A3F5922331
:102C20007C2B18D904F14042A2F594227C2A14D9B5
:102C300004F14043A3F596237C2B10D904F14043C3
:102C4000A3F598237C2B0CD904F14043A3F59A23D8
:102C50007C2B08D970BD134906E0134904E01349E1
:102C600002E0134900E0134972B6236823F470238D
:102C70002360C4F3840241F8225043F080731E4362
:102C8000266062B670BD00BFC08500000082FF1FD5
:102C90001188FF1FE587FF1FB987FF1F8D87FF1F63
:102CA0006187FF1F308DFF1F688DFF1FB88DFF1FCD
:102CB000E88DFF1F088EFF1F72B60C4B1B680C4A75
:102CC00012680C49096862B611F0806F02D0322B8D
:102CD00088BF0132C3F5BB33FF330749A1FB0303B0
:102CE0009B094FF47A7000FB0230704718E000E057
:102CF0002898FF1F04ED00E0ABAAAAAA38B5054644
:102D0000FFF7DAFF044625B938BD013D0AD004F5C6
:102D10007A74FFF7D1FF001BB0F57A7FF5D201F08E
:102D20009BF8F6E738BD00BF10B5264B4FF4000204
:102D30001A604FF080721A604FF000721A604FF004
:102D400080621A604FF000621A6000201E4B18600B
:102D50004BF6FF710433196028231C4A13600832B4
:102D600013600832136008321360083213600832AF
:102D7000136008321360083213600922144C226079
:102D800004F580540434206004342160043423604A
:102D900008342360143C226004F5FE2404342060CF
:102DA0000C4801600C490B6008310B600B4B1A603A
:102DB00001F074F84FF4C870FFF7A0FF00F074FC46
:102DC00010BD00BF08E100E0048003400C80034018
:102DD0000080034008800B400C800B4000800B40BB
:102DE00030B40E4B1B7843F002020D4C04EBC204CE
:102DF00060600C48007800280CBF8824C82444EA8E
:102E00000141074D45F8321080F00100054A10706D
:102E100083F00103014A137030BC70479498FF1F80
:102E20000080FF1F0D99FF1F10B4431E032B11D804
:102E300072B60A4A52F8230050B14268074941F875
:102E40002320074A32F813400188611A22F8131030
:102E500062B600E000205DF8044B70478498FF1FC5
:102E6000289BFF1F013803280DD872B6074B53F873
:102E700020302BB1002001305B68002BFBD100E03B
:102E8000002062B670470020704700BFD898FF1F2F
:102E900038B572B601231B491B4C5A1812F8012C85
:102EA00012F0080F24D09A0054F832506DB9164B26
:102EB00003EBC20108304860144943F83210144B48
:102EC0001A78013A1A7062B638BD42F0010254F81D
:102ED00032506DB90C4B03EBC201083048600D490C
:102EE00043F832100A4B1A78013A1A7062B638BDAC
:102EF0000133052BD1D162B60022054B1A7000F0C8
:102F000037FC38BD088700000080FF1F88004000A4
:102F10000299FF1FC800400010B4431E032B37D88E
:102F2000400140F010001C4A104472B61B4AD25CAB
:102F3000032A09D8DFE802F019021B050830022233
:102F400016E00830042213E0154A52F823201AB97B
:102F5000134A42F8231003E0124A52F8232051602A
:102F6000104A42F8231062B612E0032200E0052264
:102F70000A4CE25401F10803436000F00803002BFF
:102F80000CBF8823C8230A8843EA0243036062B661
:102F90005DF8044B704700BF0080FF1F4098FF1F83
:102FA000D898FF1FE898FF1F2DE9F84FA34CDFF8D2
:102FB000E092DFF8E0A2DFF8E0B22578EDB215F09C
:102FC000040F1DD09E4B1B7813F0FF0F16D09D4BA6
:102FD0001B7803F0FF022BB1531EDBB2994A13702A
:102FE00003B900BE984B1B7803F0FF0233B1531EA8
:102FF000DBB2954A13700BB900F016FD0423237061
:1030000015F0080F00F0E48299F80030DBB21D09DA
:1030100040F021828D4D9E0805EBC6035A6855F895
:103020003630C3F38303013B0C2B00F21082DFE840
:1030300013F0CB01CB010E020E020E020E020E02A5
:103040000E02E8010E020E020E020D008049136806
:103050000B6052684A607F4A45F8362000227E495C
:103060000A607A490A618A6101217C4A11709BB227
:1030700040F28162934218D8B3F5D06F2ED2B3F5E7
:10308000817F00F01E8106D8802B00F0C980822B42
:1030900000F0CC8066E140F20232934200F02681DB
:1030A000B3F5A06F00F062815CE142F2210293422D
:1030B00000F0868107D8B3F5086F00F0AB80B3F558
:1030C000106F11D04EE142F22122934200F0418173
:1030D00042F22132934200F0498143E1604B5D6846
:1030E000002D40F0188130E1594B9A78544B1A70FA
:1030F000564D05F180062B6A13F0800F03D0686AE5
:10310000083800F035FB0835B542F4D1DFF88C8182
:1031100000263746534AB05828B1456800F028FBCE
:103120000DB12846F9E700234E4973504E4AB3507B
:103130004E4BF05828B1456800F01AFB0DB12846F7
:10314000F9E7002349497350494AB35028F8023F30
:10315000484BFB5C023B032B0AD8DFE803F0020676
:1031600002060022434BDA5502E00122414BDA55B8
:1031700001370436102ECDD100223F4B1A700125A5
:103180003E4EDFF81C81314F05EB080313F8013C7C
:1031900006F8043B13F0080F2DD000F0C9FA48B12F
:1031A000A90007EB451200F108035360344A47F8C1
:1031B000312007E0AB00002247F833202E4B1A786D
:1031C00001321A7000F0B4FA58B1AB0043F00103B9
:1031D00007EBC30100F108024A601E4A47F833209A
:1031E00009E0AB0043F00103002247F83320224BF3
:1031F0001A7801321A70AA0042F00201002347F83F
:10320000313042F0030247F8323001351D4B9E4207
:10321000BAD11EE20A4B1B781B4D2B700127AAE086
:10322000194D00232B706B700227A4E0084B9B887C
:10323000042B37D90F22154B1A70C1E080200740AC
:103240000C99FF1F9598FF1F0E99FF1F0080FF1F0D
:10325000F898FF1FC80040002C98FF1F0D99FF1F12
:103260000C8700008498FF1F3098FF1FD898FF1F1D
:10327000E898FF1F4098FF1F0299FF1FC4200740D6
:1032800088004000D42007400499FF1FC020074059
:10329000902007409420074098200740269BFF1F5E
:1032A00008870000A04A0021117051709F4A12F84F
:1032B000233013F0020F5CD09B4D01232B700227AB
:1032C00059E09B4B9B8803F07F03042B02DC984A58
:1032D00052881AB10F22954B1A7071E0934A12F876
:1032E000231021F0020102F82310B2E1904B9B88D9
:1032F00003F07F03042B02DC8D4A52881AB10F229F
:103300008A4B1A705CE0894A12F8231041F00201DE
:1033100002F823109DE1864B5E889F88854BA3F1C0
:103320000C02114633F80C0CB04209D133F80A0CE8
:10333000B84205D1360A032E0CBF2F7817891AE040
:103340000D690C330C32002DEBD10F22774B1A7024
:1033500036E0794B1A68794B1A60754B9A78784B3E
:103360001A7076E10F22714B1A7029E000273D4652
:1033700001E002276C4D6E4BDB889F4228BF1F4641
:10338000402F34BF3E46402628463146FFF728FDF1
:103390003544BF1B03D13F2E00F2608110E0402F67
:1033A00034BF3E46402628463146FFF719FD3544D6
:1033B000BF1B01D13F2E03D9624B1D60624B1F80A2
:1033C00001238AF8003042E0594B198842F2210368
:1033D000994212D15D4BD81D12F8011B03F8011F51
:1033E0008342F9D15A4B1B68862B02D10F22594BCD
:1033F0001A7000200146FFF7F3FC574B45F83630B2
:1034000025E0504B1E68BEB14F4FB7F80080B8F1B1
:10341000400F34BF4546402530462946FFF7E0FCC3
:10342000C5EB08039BB23B800BB9402D01D135445D
:1034300000E00025434B1D603D4B1B88B3F5A06F9A
:1034400005D13B4B00225A709B788BF8003001234A
:103450008AF80030B9E0414E9F0806EBC708D8F85B
:103460000420A2F10800013DEDB213F0080F47D08F
:1034700000F07EF93A4B53F825304BB35A6838497F
:1034800041F8252003F10802C8F80420354A525DAE
:10349000032A12D8DFE802F002060A0E0321314A9D
:1034A00051550AE002212F4A515506E005212D4AC7
:1034B000515502E004212B4A515518F0080F0CBF5A
:1034C0008822C8221B8842EA034346F837307CE052
:1034D000244B5B5D032B0BD8DFE803F07777020604
:1034E0000022204B5A5570E001221E4B5A556CE0C9
:1034F00018F0080F0CBF022203221A4B5A5564E041
:1035000056F837301B0C22F8083C002B55D000230E
:1035100022F8063C42F8043C134B53F825302BBBF1
:10352000114B43F8250025E00499FF1FC0200740F8
:10353000F898FF1F188700002898FF1F389BFF1F6F
:103540001C99FF1F2C98FF1F0099FF1F2F9BFF1F27
:10355000309BFF1F9598FF1FC80040000080FF1F91
:10356000D898FF1F4098FF1F8498FF1F3F4B53F8C8
:10357000253058603D4B43F825003D4B33F815107E
:1035800032F8082C0A4423F8152000F0D1F860B175
:1035900000F10803C8F8043018F0080F354B364A1C
:1035A00008BF134646F837300FE0002346F837309F
:1035B000324B1A7801321A7007E018F0080F2D4BC1
:1035C0002D4A08BF134646F8373008232370F4E429
:1035D00015F0010F22D02A4902230B700022294B3B
:1035E0001A70294B24481860284C5C609860284861
:1035F000D8601A619A610D20264B1870FF23264867
:1036000003700838037018300270244A13709F2228
:10361000234B1A7001230B70BDE8F88F15F0800F53
:1036200005D00D221B4B1A708022403B1A7015F0FA
:10363000020F06D0184B1A78D2B21A700222083B39
:103640001A7015F0100F0ED01022164B1A70BDE82C
:10365000F88F00200146FFF7C3FBB1E628460021A2
:10366000FFF7BEFBACE6BDE8F88F00BF3098FF1F48
:10367000289BFF1FC8004000880040000299FF1FE0
:10368000942007409498FF1F0080FF1F4498FF1F5D
:103690009898FF1FC0200740882007408C200740D3
:1036A000842007408020074008B501F08BFE0023EE
:1036B0001B491A465A50C81842600833882BF9D162
:1036C000184B1A6842F480221A60154BC3F3072185
:1036D000154A1170C3F30741143211701B0E0432E6
:1036E0001370FF23343A137008321370783A137052
:1036F00001238432137000216C3211707C3A1370F4
:1037000070220A4B1A704FF40072A3F241331A6010
:10371000102203F1C04303F5C8231A7008BD00BF8F
:103720000080FF1F348004409C20074049E400E0F3
:1037300072B60D4B1A68B2FA82F30B2B02D962B63D
:10374000002070474FF00041D94022EA01020649AB
:103750000A6062B6054903EBC303DB00C818002208
:10376000CA504260704700BF108EFF1F0084FF1FC9
:1037700008B50F4BC31A0F4AA2FB03131B090B2BEF
:1037800014D80D4A12783AB10C4A127812F0FF0F91
:1037900002D0FFF77DFB08BD72B6094A4FF0004129
:1037A00021FA03F311681943116062B608BD00BF26
:1037B0000084FF1F398EE3380299FF1F0C99FF1F09
:1037C000108EFF1F10B5134B1B6853B9124B1B789B
:1037D00013F0FF0F18D00320FFF726FB0D4B1860E6
:1037E000A8B10C4B186843885A1C03441C7A038800
:1037F0009A4206D3FFF7BCFF0022064B1A60204610
:1038000010BD4280204610BD4FF0FF3010BD4FF07C
:10381000FF3010BD1899FF1F0C99FF1F08B50D4B05
:103820001B6883B90C4B1B7813F0FF0F08D00320E3
:10383000FFF7FAFA074B186028B94FF0FF3008BDC0
:103840004FF0FF3008BD034B1B685A881344187AA9
:1038500008BD00BF1899FF1F0C99FF1F044B9888E3
:10386000044B1B681BB11A885B88D31A1844704735
:10387000289BFF1F1899FF1F10B50B4B1B7813F0E7
:10388000FF0F0FD0094B186820B1FFF771FF00221E
:10389000064B1A6003242046FFF7C6FA10B1FFF763
:1038A00067FFF8E710BD00BF0C99FF1F1899FF1FB5
:1038B0002DE9F04704460122374B1A700E460029C5
:1038C00064D0DFF8E080DFF8E0909A46334FD8F814
:1038D000003083BB99F8003013F0FF0F06D10022AF
:1038E0002D4B1A704FF0FF30BDE8F0874AF2F925F2
:1038F0000420FFF7B7FA07280AD801238AF8003016
:10390000FFF716FFC8F80000A8B900238AF80030B6
:10391000013D01D03B7833B10122204B1A704FF0AA
:10392000FF30BDE8F08700F097FA99F8003013F007
:10393000FF0FDDD1D3E700233B70D8F800104A8891
:10394000C2F14005AE4238BF354602F108030B44D0
:103950002A444A80761B3DB1254414F8012B03F814
:10396000012BAC42F9D100E025464B883F2B07D90B
:1039700040230B800420FFF7CFFA0023C8F8003063
:103980000522074B1A700EB12C46A0E70020024B0F
:103990001870BDE8F08700BF0F99FF1F1499FF1F33
:1039A0000E99FF1F1099FF1F0C99FF1F00B583B0E0
:1039B00002AB03F8010D18460121FFF779FF03B0B0
:1039C0005DF804FB10B5144B1B7813F0FF0F21D0EA
:1039D0000122124B1A70124B196851B10024114B7D
:1039E0001C704B880B800420FFF796FA0C4B1C6070
:1039F0000DE0FFF79DFE014630B10022094B1A7021
:103A00000420FFF789FA02E00122064B1A70002217
:103A1000024B1A7010BD00BF0C99FF1F0F99FF1FBA
:103A20001099FF1F0E99FF1F08B50E4B1B7813F05E
:103A3000FF0F16D10C4B196841B14B880B80042045
:103A4000FFF76AFA0022084B1A6008BDFFF770FE04
:103A5000014618B10420FFF75FFA08BD0122034BAD
:103A60001A7008BD0F99FF1F1099FF1F0E99FF1FB5
:103A700030B472B699B902688AB103790F2B0ED8A7
:103A800027490988194111F0010F08D003F100738B
:103A900003F59063B2EB431F01D162B63EE0204BC9
:103AA0001D882946002341FA03F212F0010F2DD19F
:103AB000012202FA03F42543194A158062B6DAB2EC
:103AC000027118490C6844F002040C6004390C6857
:103AD00044F002040C60822413490C601A310A700D
:103AE00004310A7006390A7007310A7003F1007355
:103AF00003F590635B01036000221A605A609A60CC
:103B0000DA601A615A619A61DA6107E00133102BB9
:103B1000C9D162B6002303601023037130BC704723
:103B20001E99FF1F408004400080004003790F2B46
:103B300010D8094A137072B6084B0279012101FAB4
:103B400002F2198821EA02021A8062B61023037178
:103B500000230360704700BF1A8000401E99FF1FBA
:103B600008B5FDF7E1FBFCF7B7FD00F075F9FAE7E2
:103B700008B503F0ABFE08BD08B503F0AFFE08BD05
:103B800000B583B0054B1B88ADF8043003685B6853
:103B900001A90222984703B05DF804FBD08600001B
:103BA000F0B58BB0164622B903681B68C9B29847B6
:103BB0002FE0012A08BF0A2621B930228DF82520DE
:103BC000212417E021243746B1FBF6F506FB151535
:103BD000EDB22246092D94BF30353735EDB20DF1E7
:103BE000280E724402F8245CB1FBF7F111B1013CDC
:103BF000E4B2E9E733B1013CE4B20AAB23442D223D
:103C000003F8242C03685B6801A92144C4F1220253
:103C100098470BB0F0BD00BF2DE9F04F85B080464E
:103C200014461D469DF838901046194601F0F4FDE3
:103C300040B9D8F800305B6840466749032298478E
:103C40000746BEE02046294601F0E6FD012808D1DE
:103C5000D8F800305B684046604903229847074621
:103C6000AFE0204629464FF060425D4B03F0F2FA88
:103C700040B1D8F800305B6840465A490322984763
:103C800007469EE0204629464FF06042564B03F01F
:103C9000C3FA40B1D8F800305B684046514903226E
:103CA000984707468DE0204629460022002303F06E
:103CB000B3FA28B105F100431D464FF0010A01E0B7
:103CC0004FF0000AB9F1000F6CD04FF0000B00224A
:103CD000464B3FA7D7E900671046194632463B4698
:103CE00003F028F802460B460BF1010B5FFA8BF14B
:103CF0008945F1D82CE04E462046294600223C4B0F
:103D000003F018F804460D4603F0AEFAC0B206F10F
:103D100001095FFA89F904AB1E4400F1300306F88B
:103D2000103C02F0A1FF02460B462046294602F055
:103D30004DFE04460D46D145DDD101E04FF0010AAC
:103D4000D8F800305B68404669465246984738E0EC
:103D50002046294602F03CFE04460D4603F084FA54
:103D6000064602F071FF02460B462046294602F045
:103D70002DFE04460D46404631460A225346FFF7C3
:103D80000FFF07462E238DF80030B9F10F0F34BF17
:103D90004B460F23002BD1D003F1010A5FFA8AFAB8
:103DA0000126A9E7204629460022104B02F010FE0A
:103DB00003F05AFA014640460A225346FFF7F0FE46
:103DC0000746384605B0BDE8F08F00BFAFF300806E
:103DD000000000A09999B93FD4860000D886000061
:103DE000FFFFEF41DC860000FFFFEFC10000E03F76
:103DF00000002440AFF3008008B5FFF72FFD08BD99
:103E000008B5FFF7DFFC08BD08B5FFF707FD08BDE3
:103E100008B5FFF7D7FD08BD08B5FFF72DFD08BDB4
:103E200008B50846FFF7C2FD08BD00BF08B5084643
:103E30001146FFF73DFD08BD704700BF044B00224F
:103E40001A714FF47A7199601A73024A1A607047B6
:103E50002099FF1FE886000008B50F4B1B78CBB9EF
:103E600001220D4B1A70FFF7F9FC08B1FFF7E4FFD0
:103E700000F03AFB08B101F07BFB00F0E7FE08B16F
:103E800001F018FC01F0B4F908B101F0B5FC002212
:103E9000014B1A7008BD00BF3099FF1F60223A4BDA
:103EA0001A70E12201331A70384B1B78082B10D19D
:103EB000012203F1804303F56C331A601323344964
:103EC0000B6001F5FF2101F2FC710A60314A1360B9
:103ED0001FE00A2B0DD139222F4B1A6013232C49D6
:103EE0000B6001F5FF2101F2FC710A60294A1360A1
:103EF0000FE00C2B0CBF35223D22274B1A601223FA
:103F000023490B6001F5FF2101F2FC710A60214A8F
:103F10001360224B1B7833B10123214A136002F551
:103F20000022136005E000231D4A136002F5002201
:103F300013601C4B1B78012B06D880231A4A136090
:103F400002F5002213601AE0042B06D88423164AD7
:103F5000136002F50022136011E0082B06D88523B8
:103F6000114A136002F50022136008E0102B94BF81
:103F7000862387230C4A136002F500221360012276
:103F80000A4B1A70704700BF00400740148EFF1F95
:103F90000CB003400CB00B4008B003403299FF1F37
:103FA00020B00340158EFF1F24B003403199FF1F3E
:103FB00030B40023B0FBF2F402FB14041D46092CBC
:103FC00094BF30343734E4B2CC54B0FBF2F008B1D3
:103FD0000133EFE70D4400226A70934207DD885CED
:103FE000CC5C8C54C8540132013B9A42F7DB084642
:103FF00030BC7047254B1A6842F480621A60002377
:10400000234A1370234A1370234A1370234A1370F0
:10401000234A1370234B1B7813B1152B05D008E0EE
:1040200040F21332204B1A6003E040F213321F4B70
:104030001A601F4B1B78012B02D0052B05D008E01E
:104040004FF451721B4B1A6003E04FF451721A4B3C
:104050001A60C0F34432194B1A70C0F347125A70F9
:1040600000F01F00987204229A700221D9745A75C8
:1040700088221A743C22DA704022114B1A704FF4D5
:104080000052A3F229331A60704700BF3480044005
:10409000C099FF1F3999FF1FC899FF1FC199FF1FC2
:1040A0003899FF1F7C99FF1F40A0044018C00440AE
:1040B000168EFF1F44A004401CC0044000A0064010
:1040C0002DE400E0164B9B7803F0EC0300F00302B4
:1040D000134310F0040F18BF43F01003104A9370FD
:1040E00000F00F03042B04D11346927942F04002F2
:1040F0009A710B4B5A7902F0EF0210F0100F18BFB3
:1041000042F01002064B5A719B7903F0EF0310F056
:10411000200F18BF43F01003014A9371704700BF8E
:1041200000A0064010B5144B1B6813F4806F21D01B
:10413000124B1B7813F0FF0F06D0104CFFF78CFECC
:10414000237813F0FF0FF9D14FF400520C4B1A6093
:1041500000230C4AD37040F203120B490A60043169
:104160000A600A4A13700A4A13700A4B1B680BB1A3
:1041700001221A7010BD00BF348004403899FF1F1F
:1041800084E100E000A0064040A00440C099FF1F69
:104190003999FF1F3499FF1F10B50446094A137857
:1041A00013F0FF0FFBD120460121FEF7C5FC20468E
:1041B0000021FEF78FFC044B53F83420034B1A60A8
:1041C00010BD00BF3899FF1FC0850000C499FF1FB4
:1041D00010B40C4609B140F08000184B1B7898428F
:1041E00028D0174A126812F4806F21D003F07F03A1
:1041F000012B02D0052B04D006E00022114B1A60DF
:1042000002E00022104B1A60002C0CBF44226022F6
:1042100000F07F03012B02D0052B05D008E042F40B
:104220004072084B1A6003E042F44072064B1A6079
:10423000024B18705DF8044B704700BF168EFF1FCD
:104240003480044044A004401CC00440114B1B783F
:1042500098421ED0104A126812F4806F17D013B122
:10426000152B04D006E000220C4B1A6002E000225D
:104270000B4B1A6010B1152805D008E040F213323C
:10428000064B1A6003E040F21332054B1A60014BF3
:10429000187070477C99FF1F3480044040A0044090
:1042A00018C0044010B50D4B1B6813F4806F12D07A
:1042B00021280CD80A4C0B4B53F8303023600121D5
:1042C000FEF73AFC236800221A70012010BD00207E
:1042D000034B186010BD002010BD00BF34800440A7
:1042E0003499FF1FC0850000114B1B6813F4806FC9
:1042F0001BD0122804D140F202320E4B1A600DE09E
:10430000142804D140F202320B4B1A6006E00B4B2A
:104310005A7B02F0FE025A7300207047074B5A7B0B
:1043200042F001025A73012070470020704700BF1D
:10433000348004400CA0044014C0044000A0064097
:104340002DE9F04107461F4B1B6813F4806F37D0EF
:104350001D4B1B680BB101221A701C4B1C780134D9
:10436000402C28BF00241A4D1A4EDFF86C8017E04D
:10437000FEF734FB40280FDC337913F0800F0FD0A9
:104380002B780133402B28BF002318F80320D2B22A
:10439000F271DBB22B7003E0FF2801DDFFF75CFD5B
:1043A0002B78DBB29C42E3D0FFB20B4B1F550122AE
:1043B0000A4B1A70E4B2054B1C70BC22054BDA7034
:1043C000BDE8F08134800440C499FF1FC899FF1FE5
:1043D000C199FF1F00A006403C99FF1F3899FF1F9D
:1043E0002DE9F84F0746284B1B6813F4806F49D01E
:1043F000264B1B680BB101221A7007EB010B5F45BE
:104400003DD2DFF89890224EDFF88C80DFF890A044
:1044100099F800400134402C28BF00243578EDB2D3
:10442000A54220D1BC2388F80330FEF7D7FA4028F4
:1044300011DC98F8043013F0800F10D0337801337A
:10444000402B28BF00231AF80320D2B288F8072097
:10445000DBB2337003E0FF2801DDFFF7FDFC3378AA
:10446000DBB29D42E1D017F8013B0AF8043001228B
:10447000084B1A70E4B289F800405F45C8D1BC22ED
:10448000054BDA70BDE8F88F34800440C499FF1FF3
:10449000C199FF1F3899FF1F00A00640C899FF1F50
:1044A0003C99FF1F10B5064B1B7813F0FF0F06D089
:1044B000034CFFF7D1FC237813F0FF0FF9D110BDA7
:1044C0003899FF1F064B1B78DBB2064A1278D2B22E
:1044D00093422CBF3F3202F1FF32D01A704700BF27
:1044E000C899FF1FC199FF1F054B1878C0B2054B33
:1044F0001B78DBB2984238BF4030C01A704700BF0B
:10450000C099FF1F3999FF1F10B4184B1A78D2B207
:10451000174B1B78DBB29A4218D001333F2B18D8C7
:104520001449C85CC0B2DCB211490C701249096868
:10453000C9B19A4203D300E00023D31A01E040320C
:10454000D31A1A2B0FDC00230B700CE04FF0FF3056
:1045500009E0084B1878C0B20021054B1970064BD2
:1045600019680029E8D15DF8044B7047C099FF1F16
:104570003999FF1F8099FF1F3499FF1F094B1A7843
:10458000D2B2094B1B78DBB29A4207D00133402BE1
:1045900028BF0023054AD05CC0B270474FF0FF30FF
:1045A000704700BFC099FF1F3999FF1F8099FF1FF7
:1045B0000D4B1B6813F4806F14D00C4BDA7802F0AB
:1045C000CB02DA7040225A74DA7842F03402DA70A0
:1045D000074B1A78D2B2074B1A70074B1B680BB106
:1045E00000221A70704700BF3480044000A00640CB
:1045F0003999FF1FC099FF1F3499FF1F70B43D4BBD
:104600001B7913F0300F33D072B63A4B9B7D03F019
:10461000FF022BB9374BDA7940225A7462B627E091
:1046200062B6354B1978C9B2344B1C78E4B2314DBF
:10463000334EEB79D8B24B1C402B28BF0023A3424A
:104640001CBFF0541946531E13F0FF02F1D1CAB239
:10465000294B1A702B4B1B6853B1A1422EBFC4EBE0
:104660000101C4F1400409192729C4BF01221A70AD
:10467000204BDA78D2B212F0800F27D01B7913F0DA
:10468000800F23D0204B1C78E4B2204B1B78DBB288
:104690009C4210D017491E4D01E0A3420BD00133BC
:1046A000402B28BF00230879E85CC0B2C871087DA0
:1046B000C0B20728F1D9DBB214490B700D4B1B793E
:1046C00013F0800F02D07C210A4BD97012F0400FFA
:1046D0000ED0084B1B7913F0400F09D000220D4B70
:1046E0001A700D4B1B6803B11A703C22014BDA7033
:1046F00070BC704700A00640C099FF1F3999FF1F8A
:104700008099FF1F3499FF1FC899FF1FC199FF1F90
:104710003C99FF1F3899FF1FC499FF1F254B1A684A
:1047200042F400621A600023234A1370234A137074
:10473000234A1370234A1370234A1370234B1B78A8
:10474000092B02D01A2B05D008E040F21332204B7F
:104750001A6003E040F213321E4B1A601E4B1B78A6
:104760000A2B02D01F2B05D008E04FF451721B4BCF
:104770001A6003E04FF45172194B1A60C0F34432CF
:10478000184B1A70C0F347125A7000F01F0098724D
:1047900004229A700221D9745A7588221A743C2214
:1047A000DA704022104B1A704FF40042A3F22B3300
:1047B0001A607047348004403C9AFF1FD199FF1F54
:1047C000449AFF1F3D9AFF1FD099FF1F178EFF1FAE
:1047D0000CB0044004D00440188EFF1F10B00440F9
:1047E00000D0044000B006402FE400E0164B9B7858
:1047F00003F0EC0300F00302134310F0040F18BFA2
:1048000043F01003104A937000F00F03042B04D1FF
:104810001346927942F040029A710B4B5A7902F09A
:10482000EF0210F0100F18BF42F01002064B5A7141
:104830009B7903F0EF0310F0200F18BF43F0100333
:10484000014A9371704700BF00B0064010B5224B7B
:104850001B6813F4006F3ED0204B1B7813F0FF0F42
:1048600006D01E4CFFF7F8FA237813F0FF0FF9D1AA
:104870004FF400421A4B1A6000221A4BDA701A4B9E
:104880001B78092B02D01A2B05D008E040F2031246
:10489000164B1A6003E040F20312154B1A60154BD9
:1048A0001B7803F07F030A2B02D01F2B05D008E0F2
:1048B00040F20312104B1A6003E040F203120F4B58
:1048C0001A6000230E4A13700E4A13700E4B1B68B9
:1048D0000BB101221A7010BD34800440D099FF1F23
:1048E00084E100E000B00640178EFF1F0CB00440CA
:1048F00004D00440188EFF1F10B0044000D00440C4
:104900003C9AFF1FD199FF1FCC99FF1F10B5044699
:10491000094A137813F0FF0FFBD120460121FEF75F
:104920000BF920460021FEF7D5F8044B53F834204C
:10493000034B1A6010BD00BFD099FF1FC085000057
:10494000409AFF1F10B40C4609B140F08000184B8C
:104950001B78984228D0174A126812F4006F21D0B1
:1049600003F07F030A2B02D01F2B04D006E00022A5
:10497000114B1A6002E00022104B1A60002C0CBF91
:104980004422602200F07F030A2B02D01F2B05D0A7
:1049900008E042F44072084B1A6003E042F44072AF
:1049A000064B1A60024B18705DF8044B704700BF4D
:1049B000188EFF1F3480044010B0044000D0044023
:1049C000124B1B78984220D0114A126812F4006FE3
:1049D00019D0092B02D01A2B04D006E000220D4B6F
:1049E0001A6002E000220C4B1A60092802D01A2833
:1049F00005D008E040F21332064B1A6003E040F2A3
:104A00001332054B1A60014B18707047178EFF1F49
:104A1000348004400CB0044004D0044010B50D4B69
:104A20001B6813F4006F12D021280CD80A4C0B4BD2
:104A300053F8303023600121FEF77EF8236800220E
:104A40001A70012010BD0020034B186010BD00201B
:104A500010BD00BF34800440CC99FF1FC08500000A
:104A60000D4B1B6813F4006F13D017280AD140F2C6
:104A700002320A4B1A600A4B5A7B42F001025A7307
:104A800001207047064B5A7B02F0FE025A73002049
:104A900070470020704700BF3480044008B00440D5
:104AA00000B006402DE9F04107461F4B1B6813F488
:104AB000006F37D01D4B1B680BB101221A701C4BC5
:104AC0001C780134282C28BF00241A4D1A4EDFF818
:104AD0006C8017E0FDF782FF40280FDC337913F07C
:104AE000800F0FD02B780133282B28BF002318F814
:104AF0000320D2B2F271DBB22B7003E0FF2801DD9C
:104B0000FFF7AAF92B78DBB29C42E3D0FFB20B4B44
:104B10001F5501220A4B1A70E4B2054B1C70BC22CF
:104B2000054BDA70BDE8F08134800440409AFF1FE5
:104B3000449AFF1F3D9AFF1F00B00640D499FF1F03
:104B4000D099FF1F2DE9F84F0746284B1B6813F437
:104B5000006F49D0264B1B680BB101221A7007EB7E
:104B6000010B5F453DD2DFF89890224EDFF88C8034
:104B7000DFF890A099F800400134282C28BF0024C9
:104B80003578EDB2A54220D1BC2388F80330FDF77B
:104B900025FF402811DC98F8043013F0800F10D066
:104BA00033780133282B28BF00231AF80320D2B210
:104BB00088F80720DBB2337003E0FF2801DDFFF740
:104BC0004BF93378DBB29D42E1D017F8013B0AF88C
:104BD00004300122084B1A70E4B289F800405F45A6
:104BE000C8D1BC22054BDA70BDE8F88F3480044090
:104BF000409AFF1F3D9AFF1FD099FF1F00B006404B
:104C0000449AFF1FD499FF1F10B5064B1B7813F071
:104C1000FF0F06D0034CFFF71FF9237813F0FF0FA7
:104C2000F9D110BDD099FF1F064B1B78DBB2064AA5
:104C30001278D2B293422CBF273202F1FF32D01A3F
:104C4000704700BF449AFF1F3D9AFF1F054B18781D
:104C5000C0B2054B1B78DBB2984238BF4030C01A57
:104C6000704700BF3C9AFF1FD199FF1F10B4184B2B
:104C70001A78D2B2174B1B78DBB29A4218D00133A4
:104C80003F2B18D81449C85CC0B2DCB211490C7073
:104C900012490968C9B19A4203D300E00023D31A2C
:104CA00001E04032D31A1A2B0FDC00230B700CE00A
:104CB0004FF0FF3009E0084B1878C0B20021054BD7
:104CC0001970064B19680029E8D15DF8044B70474C
:104CD0003C9AFF1FD199FF1FFC99FF1FCC99FF1F22
:104CE000094B1A78D2B2094B1B78DBB29A4207D033
:104CF0000133402B28BF0023054AD05CC0B2704767
:104D00004FF0FF30704700BF3C9AFF1FD199FF1F43
:104D1000FC99FF1F0D4B1B6813F4006F14D00C4B54
:104D2000DA7802F0CB02DA7040225A74DA7842F074
:104D30003402DA70074B1A78D2B2074B1A70074B5D
:104D40001B680BB100221A70704700BF348004400A
:104D500000B00640D199FF1F3C9AFF1FCC99FF1F5E
:104D600070B43D4B1B7913F0300F33D072B63A4B11
:104D70009B7D03F0FF022BB9374BDA7940225A743E
:104D800062B627E062B6354B1978C9B2344B1C784D
:104D9000E4B2314D334EEB79D8B24B1C402B28BFD7
:104DA0000023A3421CBFF0541946531E13F0FF0208
:104DB000F1D1CAB2294B1A702B4B1B6853B1A142D7
:104DC0002EBFC4EB0101C4F1400409192729C4BF57
:104DD00001221A70204BDA78D2B212F0800F27D05D
:104DE0001B7913F0800F23D0204B1C78E4B2204BAA
:104DF0001B78DBB29C4210D017491E4D01E0A34244
:104E00000BD00133282B28BF00230879E85CC0B2FF
:104E1000C871087DC0B20728F1D9DBB214490B7004
:104E20000D4B1B7913F0800F02D07C210A4BD970F7
:104E300012F0400F0ED0084B1B7913F0400F09D031
:104E400000220D4B1A700D4B1B6803B11A703C22E7
:104E5000014BDA7070BC704700B006403C9AFF1FEF
:104E6000D199FF1FFC99FF1FCC99FF1F449AFF1F88
:104E70003D9AFF1FD499FF1FD099FF1F409AFF1F33
:104E8000174B1A6842F480521A600023154A1370B7
:104E9000154A1370154A1370154A1370154A13708A
:104EA00040F21331144A11604FF451710432116011
:104EB000C0F34431114A1170C0F34711517000F032
:104EC0001F009072937013742C23D37040220C4BEC
:104ED0001A704FF40032A3F22D331A60704700BFEE
:104EE00034800440B89AFF1F4D9AFF1FC09AFF1FDD
:104EF000B99AFF1F4C9AFF1F08C0044000C006402B
:104F000031E400E0164B9B7803F0EC0300F0030261
:104F1000134310F0040F18BF43F01003104A9370AE
:104F200000F00F03042B04D11346927942F04002A3
:104F30009A710B4B5A7902F0EF0210F0100F18BF64
:104F400042F01002064B5A719B7903F0EF0310F008
:104F5000200F18BF43F01003014A9371704700BF40
:104F600000C0064010B5144B1B6813F4805F21D0BD
:104F7000124B1B7813F0FF0F06D0104CFEF76CFF9E
:104F8000237813F0FF0FF9D14FF400320C4B1A6065
:104F900000230C4AD37040F203120B490A6004311B
:104FA0000A600A4A13700A4A13700A4B1B680BB155
:104FB00001221A7010BD00BF348004404C9AFF1FBC
:104FC00084E100E000C0064008C00440B89AFF1F1A
:104FD0004D9AFF1F489AFF1F10B50446094A1378DF
:104FE00013F0FF0FFBD120460121FDF7A5FD204660
:104FF0000021FDF76FFD044B53F83420034B1A607A
:1050000010BD00BF4C9AFF1FC0850000BC9AFF1F57
:1050100010B40C4609B140F08000104B1B78984248
:1050200019D00F4A126812F4805F12D003F07F0388
:10503000082B02D100220B4B1A60002C0CBF44221B
:10504000602200F07F03082B03D142F44072054B2D
:105050001A60024B18705DF8044B7047198EFF1FE1
:10506000348004400CC00440704700BF10B50D4BA5
:105070001B6813F4805F12D021280CD80A4C0B4B0C
:1050800053F8303023600121FDF756FD23680022DC
:105090001A70012010BD0020034B186010BD0020C5
:1050A00010BD00BF34800440489AFF1FC085000037
:1050B0000D4B1B6813F4805F13D00E280AD140F209
:1050C00002320A4B1A600A4B5A7B42F001025A73B1
:1050D00001207047064B5A7B02F0FE025A730020F3
:1050E00070470020704700BF3480044004C0044073
:1050F00000C006402DE9F04107461F4B1B6813F422
:10510000805F37D01D4B1B680BB101221A701C4BFE
:105110001C780134282C28BF00241A4D1A4EDFF8C1
:105120006C8017E0FDF75AFC40280FDC337913F050
:10513000800F0FD02B780133282B28BF002318F8BD
:105140000320D2B2F271DBB22B7003E0FF2801DD45
:10515000FEF782FE2B78DBB29C42E3D0FFB20B4B12
:105160001F5501220A4B1A70E4B2054B1C70AC2289
:10517000054BDA70BDE8F08134800440BC9AFF1F13
:10518000C09AFF1FB99AFF1F00C00640509AFF1F28
:105190004C9AFF1F38B505460C4629B115F8010B8E
:1051A000FFF7A8FF013CF9D138BD00BF10B5064B91
:1051B0001B7813F0FF0F06D0034CFEF74DFE23784B
:1051C00013F0FF0FF9D110BD4C9AFF1F064B1B784F
:1051D000DBB2064A1278D2B293422CBF273202F1D8
:1051E000FF32D01A704700BFC09AFF1FB99AFF1F45
:1051F000054B1878C0B2054B1B78DBB2984238BF1C
:105200004030C01A704700BFB89AFF1F4D9AFF1F69
:1052100010B4184B1A78D2B2174B1B78DBB29A42F3
:1052200018D001333F2B18D81449C85CC0B2DCB287
:1052300011490C7012490968C9B19A4203D300E0C0
:105240000023D31A01E04032D31A1A2B0FDC0023BB
:105250000B700CE04FF0FF3009E0084B1878C0B23B
:105260000021054B1970064B19680029E8D15DF83B
:10527000044B7047B89AFF1F4D9AFF1F789AFF1F83
:10528000489AFF1F094B1A78D2B2094B1B78DBB240
:105290009A4207D00133402B28BF0023054AD05C37
:1052A000C0B270474FF0FF30704700BFB89AFF1F81
:1052B0004D9AFF1F789AFF1F054B1A78D2B2054B03
:1052C0001A70054B1B680BB100221A70704700BFA3
:1052D0004D9AFF1FB89AFF1F489AFF1F2F4B1B794B
:1052E00013F0200F23D02D4BDB79D9B22C4B1B7838
:1052F0000133402B28BF00232A4A1278D2B29A42A7
:1053000004D0294AD154D9B2254A1170274A1168CC
:1053100069B1274A1278D2B293422EBFC2EB03037F
:10532000C2F140029B18272BC4BF01230B701B4BFB
:10533000DB78DBB213F0800F1CD0184A127912F020
:10534000800F17D01B4A1178C9B2194A1278D2B20D
:10535000914203D16C21114AD1700BE00132282A0D
:1053600028BF00221449885CC0B20C49C871D2B26F
:105370000F490A7013F0400F0ED0084B1B7913F041
:10538000400F09D000220D4B1A700D4B1B6803B162
:105390001A702C22014BDA70704700BF00C0064023
:1053A000B89AFF1F4D9AFF1F789AFF1F489AFF1F58
:1053B000B99AFF1FC09AFF1F509AFF1F4C9AFF1FF8
:1053C000BC9AFF1F00B585B072B61B4B70221A70D5
:1053D00041211A4A11700F21013A117080221A706E
:1053E0001A46137813F0800FFBD0154B186862B67D
:1053F000144B98429CBF00EB8000400001A90A2298
:10540000FEF7D6FD9DF804307BB908E001A9595C90
:1054100031B19180023201330A2BF7D100E0002331
:1054200001335B00084A137003E0074A53800123ED
:10543000ECE705B05DF804FB000002400700024005
:10544000080002407F969800A88EFF1F08B50368E9
:105450001B68C9B2984708BD08B503681B68C9B284
:10546000984708BD08B503681B68C9B2984708BDCE
:1054700008B503681B68C9B2984708BD08B54B0852
:1054800003F1376000F5D830B0FBF1F0FEF7B2FD64
:1054900008BD00BF10B514464B0803F1376000F596
:1054A000D830B0FBF1F0FEF7A5FD2046FEF70AFE6E
:1054B00010BD00BF08B5FEF735FE08BD08B50846AB
:1054C000FEF76AFE08BD00BF08B50846FEF7BEFE3F
:1054D00008BD00BF08B508461146FEF779FE08BDB5
:1054E00008B50846FEF7DEFE003018BF012008BDF3
:1054F00008B50846FEF7F8FE003018BF012008BDC9
:1055000008B5FEF7F1FF08BD08B5FFF737F808BD8D
:1055100008B5FEF7F9FF08BD08B5FEF7C3FF08BDE3
:1055200008B5FFF745F808BD08B5FEF7CBFF08BD85
:1055300008B50846FEF704FF012008BD08B5084677
:10554000FEF7FEFE012008BD10B5144608461146C0
:10555000FEF746FF204610BD38B50D46084602F05E
:1055600077FC044628462146FEF73AFF204638BD20
:10557000704700BF044B00221A714FF47A71996092
:105580001A73024A1A607047C49AFF1F68870000A6
:1055900008B503681B68C9B2984708BD08B5036819
:1055A0001B68C9B2984708BD08B503681B68C9B233
:1055B000984708BD08B503681B68C9B2984708BD7D
:1055C00008B54B0803F1376000F5D830B0FBF1F0B7
:1055D000FFF7A4F808BD00BF10B514464B0803F14F
:1055E000376000F5D830B0FBF1F0FFF797F82046B0
:1055F000FFF7FCF810BD00BF08B5FFF727F908BD9D
:1056000008B50846FFF782F908BD00BF08B508468F
:10561000FFF7D6F908BD00BF08B508461146FFF7E9
:1056200091F908BD08B50846FFF7F8F9003018BF32
:10563000012008BD08B50846FFF712FA003018BF70
:10564000012008BD08B5FFF701FB08BD08B5FFF74D
:1056500047FB08BD08B5FFF709FB08BD08B5FFF714
:10566000D3FA08BD08B5FFF755FB08BD08B5FFF72D
:10567000DBFA08BD08B50846FFF714FA012008BD9B
:1056800008B50846FFF70EFA012008BD10B514460C
:1056900008461146FFF756FA204610BD38B50D46AC
:1056A000084602F0D5FB044628462146FFF74AFA91
:1056B000204638BD704700BF044B00221A714FF4DA
:1056C0007A7199601A73024A1A607047D49AFF1F60
:1056D000C887000008B503681B68C9B2984708BDB1
:1056E00008B503681B68C9B2984708BD08B50368C8
:1056F0001B68C9B2984708BD08B503681B68C9B2E2
:10570000984708BD08B54B0803F1B76000F558404D
:10571000B0FBF1F0FFF7B4FB08BD00BF10B51446B5
:105720004B0803F1B76000F55840B0FBF1F0FFF70C
:10573000A7FB2046FFF7E6FB10BD00BF08B5FFF74B
:1057400011FC08BD08B50846FFF746FC08BD00BFC0
:1057500008B50846FFF788FC08BD00BF08B5084635
:105760001146FFF755FC08BD08B50846FFF77EFC5B
:10577000003018BF012008BD08B50846FFF798FCA7
:10578000003018BF012008BD08B5FFF731FD08BD86
:1057900008B5FFF777FD08BD08B5FFF739FD08BD6F
:1057A00008B5FFF703FD08BD08B5FFF785FD08BD87
:1057B00008B5FFF70BFD08BD08B50846FFF79AFCD2
:1057C000012008BD08B50846FFF794FC012008BD7C
:1057D00010B5144608461146FFF7DCFC204610BD04
:1057E00038B50D46084602F033FB044628462146EC
:1057F000FFF7D0FC204638BD704700BF044B0022A5
:105800001A714FF47A7199601A73024A1A607047DC
:10581000E49AFF1F2888000031F0004310B408D03C
:105820000F4AA3F5801494420AD804205DF8044B73
:10583000704700280CBF022003205DF8044B70471E
:10584000B3F5801F01D20320F7E7064A934201D047
:105850000020F2E7D0F1010038BF0020EDE700BFE3
:10586000FFFFDF7F0000F07F2DE9F04FDFF8B8A2E7
:105870008BB01D4680468946144600F071F99AF9AE
:105880000030013306460F4604D020462946FFF774
:10589000C3FF20B9304639460BB0BDE8F08F404613
:1058A0004946FFF7B9FF834600282CD120462946F8
:1058B0000022002301F0A6FC0028EBD0944B9AF9BB
:1058C00000109448CDF820B000220126CDE906232F
:1058D0004B1CCDE90289CDE90445009601900DD01D
:1058E00002290BD0684600F041FF002800F09580A7
:1058F000089B1BB101F0BCFF089B0360DDE90601BA
:105900000BB0BDE8F08F002200234046494601F06D
:1059100079FCF8B1204629460022002301F072FCF0
:10592000834600284DD07B4A9AF900300192CDE998
:1059300004450121002200240025CDE90289CDE99A
:10594000064500910892002BCCD0714B0022CDE986
:105950000623D3E73046394600F002FF834600288D
:1059600060D0002200233046394601F04BFC00286D
:1059700090D04046494600F0F3FE00288AD02046E9
:10598000294600F0EDFE002884D09AF90030614AE3
:105990000192CDE904450421002200240025022BB8
:1059A000CDE90289CDE906450091089200F0828098
:1059B000684600F0DBFE00287CD0089B002B9DD0C1
:1059C00098E72046294600F0CBFE00283FF462AF5E
:1059D000204629460022002301F01EFC00283FF447
:1059E00059AF4C4B9AF80010CDF820B001228DE849
:1059F0000C00CDE90289CDE904450022002934D10B
:105A00000023CDE90623684600F0B0FE0028D4D17B
:105A100001F02EFF21230360CFE701F029FF2123AE
:105A2000036065E74046494600F09AFE002898D09A
:105A30002046294600F094FE002892D03046394690
:105A4000FFF7EAFEB8B9334B9AF8006008900122DC
:105A5000CDE90289CDE904458DE80C00002E2ED158
:105A600000240025CDE90645CDE72B4B0229CDE9E1
:105A70000623CDD0C7E7274A9AF90030CDF820B0E9
:105A800003218DE80600CDE90289CDE904454046B1
:105A900049460022F3B9214F4FF060460023CDE97B
:105AA000066701F0B9FB002840D19AF90030022BBB
:105AB0007FF47EAF01F0DCFE222303607DE700204F
:105AC000002102460B4601F05FFA022ECDE90601E5
:105AD0009ED098E7124F00260023CDE9066701F01B
