:1000000000800020BD0100005130000015300000CC
:1000100015300000153000001530000015300000CC
:100020001530000015300000153000005130000080
:100030005130000015300000513000000530000044
:1000400051300000513000005130000051300000AC
:10005000513000005130000051300000513000009C
:10006000513000005130000051300000513000008C
:10007000513000005130000051300000513000007C
:10008000513000005130000051300000513000006C
:10009000513000005130000051300000513000005C
:1000A000E12E0000F12E0000513000005130000020
:1000B000513000005130000051300000513000003C
:1000C000513000005130000051300000513000002C
:1000D000513000005130000051300000513000001C
:1000E000513000005130000051300000513000000C
:1000F00051300000AD4C00005130000011540000A0
:10010000513000008D590000513000005130000086
:1001100051300000513000005130000051300000DB
:1001200051300000513000005130000051300000CB
:1001300051300000513000005130000051300000BB
:1001400051300000513000005130000051300000AB
:10015000513000005130000051300000513000009B
:100160005130000045360000513000005130000091
:10017000513000005130000051300000513000007B
:10018000513000005130000051300000513000006B
:10019000513000005130000051300000513000005B
:1001A000513000005130000051300000513000004B
:1001B000513000005130000051300000574B4CF2DC
:1001C000205210B51A804DF628121A8000BF00BFC9
:1001D00002F042FF524B4FF010621A60514A9A608F
:1001E000514ADA60A3F53043203B1A6812F480725A
:1001F00004D14E490A604FF4A8521A604C4B1A7849
:10020000110703D51A7842F008021A70494B4A4C7C
:100210004A482A221A704A4A00239918A14203D256
:10022000195899500433F8E7464B474900228B424E
:1002300002D243F8042BFAE74448454900235A58B0
:100240001A500433B3F5DE7FF9D1424B424A802184
:1002500003F8011B9342FBD1404B3C4A1A60404BD0
:100260008A221A70A3F5805324225A70A0221A7091
:100270009A799207FCD59A79D406FCD4394A9379B5
:1002800003F00C03082B374BF9D103221A714022DB
:100290005A719A799006FCD5324A9179314B4906C8
:1002A000FBD5314A314911600221516020221A7078
:1002B0009A7902F00C020C2AFAD12D4B2D4A1A60C1
:1002C0002D4B2E4A1A6000225A60072243F8042C54
:1002D0002B4AC3F80C2D62B603F074F8134B1B685D
:1002E000DA0705D5274802F033FF274B274A1A6063
:1002F000274B1B785B0609D5234C244A236893427D
:1003000004D1204802F024FF0023236007F0E8FD19
:1003100002F0A8FE03F072FFFEE700BF0E200540CA
:1003200030800440823F04000100002B14D00340C1
:1003300002D0074000E007400497FF1FF08F000045
:100340006087FF1F0497FF1FDC9BFF1F0082FF1FBA
:100350000000000000E400E05FE400E008ED00E0E1
:100360000050064000400640448004400000030165
:1003700004800440C010050014E000E0FF76010096
:10038000000020202085A5001CE00340A5C3945A4E
:1003900000F00740FFFFFFFFFFFFFFFFFFFFFFFF32
:1003A000FFFFFFFFFFFFFFFFFFFFFFFFFFFFFFFF5D
:1003B000FFFFFFFFFFFFFFFFFFFFFFFFFFFFFFFF4D
:1003C000FFFFFFFFFFFFFFFFFFFFFFFFFFFFFFFF3D
:1003D000FFFFFFFFFFFFFFFFFFFFFFFFFFFFFFFF2D
:1003E000FFFFFFFFFFFFFFFFFFFFFFFFFFFFFFFF1D
:1003F000FFFFFFFFFFFFFFFFFFFFFFFFFFFFFFFF0D
:10040000FFFFFFFFFFFFFFFFFFFFFFFFDEF9FFFF23
:1004100010B5054C237833B9044B13B10448AFF33E
:1004200000800123237010BD0497FF1F000000000F
:10043000F08F000008B5064B1BB106480649AFF324
:1004400000800648036813B1054B03B1984708BD07
:1004500000000000F08F00000897FF1F0497FF1FA7
:10046000000000000122014B1A7070479898FF1F8E
:1004700038B505460C46084608F01CF802462B68BD
:100480005B6828462146984738BD00BF38B504460A
:100490000D46084608F00EF8024623685B682046C1
:1004A000294698470546204603F0B8FE284438BD43
:1004B00030B583B005469DF81810009103F004FF95
:1004C0000446284603F0AAFE204403B030BD00BF16
:1004D0000023036643668366C366036743678367D7
:1004E000C367C0F88030C0F88430C0F88830C0F8E6
:1004F0008C30C0F89030C0F89430C0F898300129A2
:100500000CBF692368230370831C836100F1080317
:10051000C36100F10E03036200F11403436200F1B2
:100520002803036500F13403436500F13C03836550
:1005300000F14C03C3657047064B1B7813B1012BC8
:1005400004D07047044A054B1A607047044A034BB5
:100550001A6070474888FF1FFFEBBF408098FF1F5D
:10056000FFEBBF3F0B4B1B78032B12D8DFE803F0E8
:1005700002060A0E084A094B1A607047084A074BE0
:100580001A607047074A054B1A607047064A034BCA
:100590001A607047D097FF1F0000FA3BDC97FF1FDF
:1005A00000007A3C0000FA3C00007A3D0D4B1B78BD
:1005B000032B16D8DFE803F002070C114FF062524C
:1005C000094B1A6070474FF06452074B1A6070472E
:1005D0004FF06652044B1A6070474FF06852024B5E
:1005E0001A607047E097FF1F3097FF1F2DE9F04317
:1005F00083B03B4C23685B6820463A490B229847FE
:10060000204603F00BFE01244FF00008364D344F16
:10061000DFF8EC90E6B22846314601F03FFE29694A
:100620006A7B002300932846012302F00FF9F8B9F2
:100630003B685B6838462D491E2298470F2E05D827
:100640003B685B6838462A4901229847384621466C
:100650001022002303F0F2FD3B685B683846254911
:1006600003229847384603F0D9FD08F1010818E045
:10067000042816D13B685B68384649461A229847D9
:100680000F2E05D83B685B68384619490122984708
:10069000384621461022002303F0D0FD384603F0EF
:1006A000BDFD01347F2CB5D1B8F1000F0AD10C4C3F
:1006B00023685B682046104915229847204603F0BE
:1006C000ADFD09E0064C23685B6820460B49052216
:1006D0009847204603F0A2FD03B0BDE8F08300BFB9
:1006E000BC99FF1F54880000B098FF1F608800006D
:1006F0008088000084880000A4880000BC88000076
:1007000088880000FFFFFFFF08B5134B186806F04C
:1007100015FE0FA3D3E9002306F064FE07F01CF9D1
:100720000E4B18600E4B186806F008FE08A3D3E9BC
:10073000002306F057FE07F00FF90A4B18600A482D
:100740000021FFF7C5FE09480121FFF7C1FE08BDE2
:10075000AA4C58E87AB6EB3F4C88FF1F8498FF1FDD
:100760008898FF1F8C98FF1F3497FF1FE497FF1F87
:1007700070B582B003460E4615460B4C204619460E
:1007800001F08CFD2046314601F0FAF92046294659
:1007900001F0F6F92169627B0023009320460123D2
:1007A00002F054F802B070BDB098FF1F2DE9F0417F
:1007B00082B007460D4690461E46194C20463946E3
:1007C00001F06CFD2046294601F0DAF92169627BCF
:1007D0000025009520462B4602F038F82069617B01
:1007E0000123009301953A46434602F043F82069FD
:1007F000D0F83821D0F834319A420DD02C46084F29
:10080000E5B202F055F870553869D0F83811D0F8D3
:10081000342101349142F3D102B0BDE8F08100BF30
:10082000B098FF1F10B584B0044600783B210C221D
:100830006B46FFF7BBFF9DF800209DF8013043EAAF
:10084000022363809DF802209DF8033043EA0223CF
:10085000A3809DF804209DF8053043EA0223E3803D
:100860009DF806209DF8073043EA022323819DF876
:1008700008209DF8093043EA022363819DF80A208D
:100880009DF80B3043EA0223A3819DF80C209DF8CC
:100890000D3043EA0223E38104B010BD10B582B0ED
:1008A0000446007837211222FFF762FF0C200A214C
:1008B0000022FFF75DFF0A2002F06EFD0C200A21E6
:1008C0000F22FFF755FF0A2002F066FD0C201021D1
:1008D000032201ABFFF76AFF9DF80400803807F0A0
:1008E00045F94FF06E5107F095F94FF07E5107F042
:1008F00089F8C4F890009DF80500803807F036F9B3
:100900004FF06E5107F086F94FF07E5107F07AF8FC
:10091000C4F894009DF80600803807F027F94FF0DE
:100920006E5107F077F94FF07E5107F06BF8C4F87D
:1009300098000C200A210022FFF71AFF0A2002F07B
:100940002BFD0A4B1A780A4B1B7843EA02120C2043
:100950000A21D2B2FFF70CFF0A2002F01DFD207819
:1009600037211022FFF704FF02B010BD4888FF1F97
:100970005088FF1F2DE9F04F8DB0044600250695E5
:100980000795089500786B218022FFF7F1FE64201F
:1009900002F002FD20786B210122FFF7E9FE2078AA
:1009A0006C212A46FFF7E4FEC82002F0F5FC20780F
:1009B00038212A46FFF7DCFE207823212A46FFF75C
:1009C000D7FE20786B212A46FFF7D2FE207824211B
:1009D0002A46FFF7CDFE20786A212A46FFF7C8FE97
:1009E00020786A210C22FFF7C3FE0F2002F0D4FC0E
:1009F00020781A210122FFF7BBFE207819212A4610
:100A0000FFF7B6FE20781B212A46FFF7B1FE2078BB
:100A10001C212A46FFF7ACFE20786A214022FFF70E
:100A2000A7FE207823217822FFF7A2FE282002F0DB
:100A3000B3FC207823212A46FFF79AFE2078722102
:100A4000022203ABFFF7B2FE9DF80C909DF80D302B
:100A500043EA0929264BA3FB09295FEAD90949D0B2
:100A60002E46A8462F464FF0740A207851460C2295
:100A70000DEB0203FFF79AFE9DF80E209DF80F3054
:100A800043EA02239DF810B09DF8112042EA0B2B97
:100A90009DF812C09DF8132042EA0C2C9DF814E03A
:100AA0009DF8152042EA0E2E9DF816009DF817209D
:100AB00042EA00209DF80C109DF80D2042EA012228
:100AC000069901FA82F10691079A02FA83F20792D7
:100AD000089B03FA8BF3089306FA8CF608FA8EF853
:100AE00007FA80F70135ABB29945BED805E000BFE3
:100AF000ABAAAAAA0026B0463746069D95FBF9F593
:100B00000695079B93FBF9FACDF81CA0089B93FB75
:100B1000F9F396FBF9F698FBF9F897FBF9F7002B38
:100B2000CCBFA3F5804303F5804308937242002AAB
:100B3000B8BF03329310C2F387228DF80C208DF8D2
:100B40000D30C8F10003002BB8BF033399109B127E
:100B50008DF80E308DF80F107B42002BB8BF033399
:100B600099109B128DF810308DF8111020781321F8
:100B7000FFF7FEFD207814219DF80D20FFF7F8FD0A
:100B8000207815219DF80E20FFF7F2FD2078162120
:100B90009DF80F20FFF7ECFD207817219DF810201D
:100BA000FFF7E6FD207818219DF81120FFF7E0FD02
:100BB000DFF878B2DBF800305B68584697491322BB
:100BC0009847304606F0D2FF954907F023F895493B
:100BD00007F0D4F806F0B2FB02460B464FF00209CC
:100BE000CDF80090584603F06FFBDBF800308E4ED6
:100BF0005B68584631464A469847404606F0B6FF7D
:100C0000874907F007F8874907F0B8F806F096FB20
:100C100002460B46CDF80090584603F055FBDBF832
:100C200000305B68584631464A469847384606F0D9
:100C30009DFF7B4906F0EEFF7A4907F09FF806F02A
:100C40007DFB02460B46CDF80090584603F03CFB76
:100C5000584603F0E3FA207877214A4603ABFFF7C2
:100C6000A5FD9DF80C209DF80D3043EA0223099361
:100C700020787A214A4603ABFFF798FD9DF80C20B7
:100C80009DF80D3043EA02230A9320787D214A46DD
:100C900003ABFFF78BFD9DF80C209DF80D3043EA68
:100CA00002230B9300228DF808208DF809208DF87F
:100CB0000A2008A901264B6813F0010F1CBF02A8E7
:100CC000165403EBD3735B1041F8043F0132032A3F
:100CD000F1D1002309A8064606AA9A58002AB8BFEF
:100CE00007329959A1EBE20252001A5004330C2B3F
:100CF000F2D1099BC3F307228DF80C2023F00103E6
:100D00009DF808100B438DF80D300A9B19128DF8D1
:100D10000E1023F001039DF809100B438DF80F30DE
:100D20000B9B19128DF8101023F001039DF80A1087
:100D30000B438DF8113020787721FFF719FD2078CB
:100D400078219DF80D20FFF713FD20787A219DF87A
:100D50000E20FFF70DFD20787B219DF80F20FFF777
:100D600007FD20787D219DF81020FFF701FD2078F8
:100D70007E219DF81120FFF7FBFC2C4C23685B685B
:100D800020462B491B229847284606F0EFFE2449AF
:100D900006F040FF4FF0625106F03CFF06F0CEFA3D
:100DA00002460B4602250095204603F08DFA236883
:100DB0001D4E5B68204631462A469847504606F04D
:100DC000D5FE174906F026FF4FF0625106F022FFCC
:100DD00006F0B4FA02460B460095204603F074FA7A
:100DE00023685B68204631462A469847089806F0F3
:100DF000BDFE0B4906F00EFF4FF0625106F00AFFF0
:100E000006F09CFA02460B460095204603F05CFA79
:100E1000204603F003FA0DB0BDE8F08FC48800004F
:100E200000007A4400000343D8880000BC99FF1FEB
:100E3000DC88000070B582B006460D460F4C204697
:100E4000314601F02BFA2046294600F099FE21692F
:100E5000627B0025009520462B4601F0F7FC2069B7
:100E6000617B012300930195324601F003FD206967
:100E700001F01EFDC0B202B070BD00BFB098FF1FF0
:100E800008B500787521FFF7D5FF712814BF002041
:100E9000012008BD38B50446007837211222FFF73B
:100EA00067FC0C200021FFF7C5FF0546207837219D
:100EB0001022FFF75DFC482D14BF0020012038BD33
:100EC00010B582B00446007837211222FFF750FC9B
:100ED0000C200221FFF7AEFF00F00100164B187046
:100EE00010B30C20032107226B46FFF75FFC9DF82F
:100EF000063013F0080F17D1236A9DF801109DF8F2
:100F0000002042EA01221A80236A9DF803109DF80E
:100F1000022042EA01225A80236A9DF805109DF8BA
:100F2000042042EA01229A80207837211022FFF71C
:100F30001FFC02B010BD00BF2097FF1F10B5044674
:100F4000FFF770FC2046FFF7BBFF10BDF0B585B082
:100F50000022514B1A705148FFF7F0FF5048FFF73D
:100F6000EDFF02F0F7F904464E4B18604E4D28682D
:100F7000201A06F0F7FD4D4906F000FF4C4B1860B3
:100F80002C604C4C216806F03DFD20604A4B1A68ED
:100F900001321A60494B1B680193019A484B1B6848
:100FA000D31A484A13600A2B74D9444F3B68029302
:100FB0000299454C20460A22002303F03FF923689A
:100FC000424D5B682046294602229847334E336AD9
:100FD0002046B3F9001003F06DF923685B682046E2
:100FE000294602229847336A2046B3F9021003F0DB
:100FF00061F923685B682046294602229847336AD4
:101000002046B3F9041003F055F923685B682046C5
:10101000294602229847224E336A2046B3F900102F
:1010200003F048F923685B68204629460222984766
:10103000336A2046B3F9021003F03CF923685B6879
:101040002046294602229847336A2046B3F9041005
:1010500003F030F923685B6820461D490022984759
:10106000204603F0DBF81B4B1C78204602F0A4F866
:10107000D0F1010138BF0021204602F079F83B6829
:101080000393039A0E4B1A6000220B4B1A60002246
:10109000084B1A6005B0F0BD9898FF1F3497FF1FEA
:1010A000E497FF1FD497FF1F2897FF1F0024744960
:1010B0009498FF1F2497FF1F2C97FF1FC498FF1FB2
:1010C000D897FF1F9098FF1FBC99FF1FD88800007A
:1010D0004C8900004488FF1F2DE9F04F8BB0054676
:1010E000A34B186806909A88ADF81C2053F8080F97
:1010F00008909B88ADF824309E4C23685B6820469E
:101100009D493A229847204603F088F84FF47A70B8
:1011100002F042F9994B1B78022B04D0062B32D1F6
:1011200040F2DC5801E04FF0800800242746934E3F
:101130004FF087092846FFF7C3FED5F820E03B466D
:101140003EF8032006A9585E11B28842BCBF06A92A
:101150005A5208A9585E11B28842C4BF08A95A520F
:101160000233062BECD13378022B02D1484602F031
:1011700013F93378062B02D10C2002F00DF901345B
:10118000A3B24345D6D3BDF918B0BDF920A0BDF92F
:101190001A90BDF922200392BDF91C300493BDF9C9
:1011A00024200592734C23685B68204674491822FA
:1011B00098470BEB0A0303EBD370401006F0D6FC04
:1011C000DFF8D081D8F8001006F024FDD5F8901093
:1011D00006F020FD06F0B2F802460B460226009605
:1011E000204603F071F82368664F5B682046394655
:1011F00032469847039B4B4403EBD370401006F0F4
:10120000B5FCD8F8001006F005FDD5F8941006F0EE
:1012100001FD06F093F802460B460096204603F0C7
:1012200053F823685B682046394632469847049B4A
:10123000059A134403EBD370401006F097FCD8F8DE
:10124000001006F0E7FCD5F8981006F0E3FC06F075
:1012500075F802460B460096204603F035F8204606
:1012600002F0DCFFD8F8000006F068F802460B46F2
:101270000096204603F028F8204602F0CFFFD5F86C
:10128000900006F05BF802460B460096204603F0FD
:101290001BF8204602F0C2FFCAEB0B0A0AEBDA7A0F
:1012A0004FEA6A05039BC3EB090909EBD9794FEAB9
:1012B0006909049A059BC3EB020A0AEBDA7A4FEA42
:1012C0006A0A05EB0900504406F050FC2E4906F06E
:1012D00055FD804623685B6820462C4919229847B3
:1012E000284606F043FC0146404606F047FD06F05E
:1012F00025F802460B460096204602F0E5FF2368DB
:101300005B682046394632469847484606F02EFC30
:101310000146404606F032FD06F010F802460B4644
:101320000096204602F0D0FF23685B6820463946CD
:1013300032469847504606F019FC0146404606F0F2
:101340001DFD05F0FBFF02460B460096204602F00D
:10135000BBFF204602F062FF23685B6820460C4911
:1013600015229847204602F059FF0BB0BDE8F08FD8
:1013700044880000BC99FF1FF88800005088FF1FB8
:1013800034890000D88800000000404050890000E7
:101390006C8900008098FF1F10B5044600786B210F
:1013A0000022FFF7E5F9642001F0F6FF20786B21B9
:1013B0000122FFF7DDF9C82001F0EEFF20781A21A5
:1013C0000322FFF7D5F9207819210422FFF7D0F97D
:1013D00020781B21FFF72EFD20F01A00194B1A78F8
:1013E00040EAC20220781B2102F0FD02FFF7C0F99B
:1013F00020781C21FFF71EFD20F01800124B1A78F0
:1014000040EAC20220781C21D2B2FFF7B1F920785D
:101410001D21FFF70FFD00F0F00220781D2142F0A2
:101420000302FFF7A5F9207837211022FFF7A0F972
:10143000207838210122FFF79BF9642001F0ACFFEE
:1014400010BD00BFD097FF1FE097FF1FFFFFFFFFFA
:101450002DE9F04F97B0044600258DF808508DF81F
:1014600009508DF80A508DF80B508DF80C508DF8FE
:101470000D500495059506950795089509950A95CB
:101480000B950C950D950E950F95007819212A4610
:10149000FFF76EF920781A210222FFF769F9207808
:1014A0001B212A46FFF764F920781D210222FFF74D
:1014B0005FF920781C212A46FFF75AF9C8253B27F7
:1014C000062620783946324602ABFFF76FF99DF8C1
:1014D00008209DF8093043EA0222079B03FA82F3B1
:1014E00007939DF80A209DF80B3043EA0222089BDF
:1014F00003FA82F308939DF80C209DF80D3043EA1F
:101500000222099B03FA82F3099320784321324691
:1015100002ABFFF74BF99DF808209DF8093043EA2C
:101520000222049B03FA82F304939DF80A209DF89B
:101530000B3043EA0222059B03FA82F305939DF8E0
:101540000C209DF80D3043EA0222069B03FA82F339
:101550000693013DB5D10023BD4807AA995880FBE9
:101560000165C917C1EBA511995004AA995880FBD0
:101570000165C917C1EBA511995004330C2BECD1AF
:1015800020781C21E022FFF7F3F820781B21E022CD
:10159000FFF7EEF8192001F0FFFEC8253B270626CD
:1015A00020783946324602ABFFF700F99DF8082053
:1015B0009DF8093043EA02220A9B03FA82F30A9358
:1015C0009DF80A209DF80B3043EA02220B9B03FA98
:1015D00082F30B939DF80C209DF80D3043EA022214
:1015E0000C9B03FA82F30C9320784321324602AB22
:1015F000FFF7DCF89DF808209DF8093043EA022245
:101600000D9B03FA82F30D939DF80A209DF80B3091
:1016100043EA02220E9B03FA82F30E939DF80C20FC
:101620009DF80D3043EA02220F9B03FA82F30F93D9
:10163000013DB5D1002386480AAA995880FB01656F
:10164000C917C1EBA51199500DAA995880FB0165E6
:10165000C917C1EBA511995004330C2BECD120789C
:101660001C210022FFF784F820781B210022FFF7BD
:101670007FF8192001F090FE20780D21FFF7DAFBAA
:10168000834620780E21FFF7D5FB824620780F2174
:10169000FFF7D0FB814620780021FFF7CBFB804687
:1016A00020780121FFF7C6FB074620780221FFF7CB
:1016B000C1FB064662A5D5E90045584606F052FA38
:1016C0004FF07E5106F09CF905F038FE02460B46BD
:1016D0002046294604F020FC5BA3D3E9002305F053
:1016E00081FE06F039F91090504606F03BFA4FF0B3
:1016F0007E5106F085F905F021FE02460B46204694
:10170000294604F009FC50A3D3E9002305F06AFE42
:1017100006F022F91190484606F024FA4FF07E5167
:1017200006F06EF905F00AFE02460B4620462946F1
:1017300004F0F2FB44A3D3E9002305F053FE06F0C6
:101740000BF91290404606F00DFA4FF07E5106F06C
:1017500057F905F0F3FD02460B462046294604F0F2
:10176000DBFB39A3D3E9002305F03CFE06F0F4F8D7
:101770001390384606F0F6F94FF07E5106F040F926
:1017800005F0DCFD02460B462046294604F0C4FB6A
:101790002DA3D3E9002305F025FE06F0DDF8149013
:1017A000304606F0DFF94FF07E5106F029F905F0DA
:1017B000C5FD02460B462046294604F0ADFB22A398
:1017C000D3E9002305F00EFE06F0C6F81590214877
:1017D00003685B68204925229847002425461D4F51
:1017E0001E4EDFF87C800AABE05807ABE358C01A06
:1017F00006F0BCF9314606F00DFA10ABE15806F0E0
:10180000BDFA314606F0FCF805F098FD02460B469D
:1018100002210091384602F057FD012D05DC3B689E
:101820005B68384641460222984701350434032D4F
:10183000D9D1084C23685B68204613E0AFF30080E1
:10184000000000C0F528F03F000000000078A44030
:101850001F85EB51BC99FF1F848900000000C8421E
:10186000D8880000234900229847204602F0D6FC81
:1018700023685B68204620491C229847002425469F
:101880001E4F1F4EDFF87C800DABE05804ABE358D1
:10189000C01A06F06BF9314606F0BCF916AB2344CA
:1018A00053F80C1C06F06AFA314606F0A9F805F068
:1018B00045FD02460B4602210091384602F004FD28
:1018C000012D05DC3B685B6838464146022298479B
:1018D00001350434032DD7D1084C23685B682046BA
:1018E000044900229847204602F098FC17B0BDE852
:1018F000F08F00BF4C890000AC890000BC99FF1F2D
:101900000000C842D88800002DE9F04786B0834B1C
:101910001869597B0024009401940294804B03932E
:10192000012504952246234600F064FB4FF47A60BB
:1019300001F032FD7B4B1878214601F04BFC7A4CCC
:101940002078294601F046FC2078294601F010FC59
:10195000FEF74CFE7548FFF793FA074618B1744836
:101960007449FEF793FD7148FFF794FA064618B1E3
:101970006F487149FEF78AFD7048FFF781FA054606
:1019800018B16B486E49FEF781FD6C48FFF782FA8B
:10199000044618B166486B49FEF778FD002F00F049
:1019A000B280002E00F0AF80002D00F0AC80002C43
:1019B00000F0A980DFF874A15046FFF749FD5F4EA3
:1019C0003046FFF745FD4FF47A7001F0E5FC5046D4
:1019D000FEF7ECFD5046FEF7C5FD5046FEF7ACFDA8
:1019E0003046FEF7E3FD3046FEF7BCFD3046FEF71D
:1019F000A3FD5046FEF7BEFF3046FEF7BBFF504644
:101A0000FFF7CAFC4A4C20464F49FEF73FFD3046DF
:101A1000FFF7C2FC20464D49FEF738FD5046FEF761
:101A20003DFF20464A49FEF731FD3046FEF736FFBE
:101A300020464849FEF72AFD5046FFF74DFBDFF8E8
:101A4000249120464946FEF713FDDAF8900005F090
:101A500075FC02460B46022500952046FEF728FD40
:101A6000DFF8048120464146FEF702FDDAF89400D3
:101A700005F064FC02460B4600952046FEF718FD73
:101A8000354F20463946FEF7F3FCDAF8980005F0AA
:101A900055FC02460B4600952046FEF709FD3046F0
:101AA000FFF71AFB20464946FEF7E2FCD6F8900005
:101AB00005F044FC02460B4600952046FEF7F8FC74
:101AC00020464146FEF7D4FCD6F8940005F036FCDB
:101AD00002460B4600952046FEF7EAFC20463946B2
:101AE000FEF7C6FCD6F8980005F028FC02460B4627
:101AF00000952046FEF7DCFC0A4B187817490322B4
:101B000001F0A8FB06E00A4803685B68144920223C
:101B10009847FEE706B0BDE8F08700BFB098FF1F0A
:101B2000801A06004088FF1F4488FF1F3497FF1F5C
:101B3000BC99FF1FCC890000E8890000E497FF1FD3
:101B4000108A00002C8A0000548A0000748A000069
:101B5000908A0000B48A0000288B00006504000011
:101B6000508B0000D88A0000008B00000369D3F876
:101B70003801D3F83431C01A704700BF704700BF36
:101B80000369D3F84422B2F5817F09D8D3F84422FF
:101B9000501CC3F84402134483F83C1101207047E1
:101BA000012303710020704730B40369D3F8444225
:101BB000B4F5817F1ED8D3F84442C4F58174013452
:101BC000D3F844522B4403F59E73944202D201226F
:101BD0000271224632B18D1811F8014B03F8014B06
:101BE000A942F9D10369D3F844121144C3F844124D
:101BF000104602E001230371002030BC704700BF93
:101C000038B50446084B0360036993F84822022A5A
:101C100008D1D3F864522DB1284602F0D5FA2846EF
:101C200002F0F8FA204638BD808B000010B4002284
:101C300002714FF47A7484600273064A0260417341
:101C40004FF41B74044A04FB012101615DF8044B4D
:101C5000704700BF808B00005488FF1F70B504469A
:101C60000D46C3681B7813F0200F40F0B6808368E0
:101C700080211970C3681221197090F84932012B24
:101C80000BD022B9002380F84832012070BD531ECA
:101C9000DBB2012B00F2A38000E0012225B94FF056
:101CA0008071504B196005E0012D03D14FF0007198
:101CB0004C4B1960022A40F08C80D4F864624EB913
:101CC000082002F0A3FA0646002102F01FFAC4F829
:101CD00064627EB13379102B0CD1304602F074FA75
:101CE000304602F097FA0023C4F86432012084F8E9
:101CF000480270BD002D30D133689A8B92B2998B17
:101D000042F008029A83D4F86432197910313648C7
:101D1000364A42F821001A7953119B0003F16043BF
:101D200003F5614302F01F02012101FA02F21A6079
:101D3000D4F864321B689A8B92B2998B42F00202FB
:101D40009A83D4F864321B7903F1804303F504339A
:101D500000221A7096221A7033E0012D31D1D4F886
:101D600064321B689A8B92B2998B42F008029A8374
:101D7000D4F86432197910311D481C4A42F8210008
:101D80001A7953119B0003F1604303F5614302F09C
:101D90001F02012101FA02F21A60D4F864321B68B2
:101DA0009A8B92B2998B42F002029A83D4F86432F1
:101DB0001B7903F1804303F5043300221A70972244
:101DC0001A70002384F85A32022384F84832012022
:101DD00070BD012084F8480270BD002070BD012054
:101DE00070BD00BF00E100E0E12E00000082FF1F97
:101DF000F12E000070B4254BA3FB0145AD092D0267
:101E0000A3FB02439B09B5FBF3F5B5F5A05F38DBF7
:101E10001F4A012302E00133382B05D052F8044F4A
:101E2000B5EB042FF7DA93B15A1E194C54F822601F
:101E3000A5EB0626002EB8BF764254F82340A5EB4A
:101E40000425002DB8BF6D42AE42D8BF134642688C
:101E5000104CE45C14700E4A52F82330B1FBF3F3DB
:101E6000C0F84C320C4B994203D9836904221A7092
:101E700009E08369094AA2FB0101C1F30751197006
:101E800001E00023E3E770BC704700BFD34D621050
:101E9000988B0000788C0000FF6BDC02819F5E163F
:101EA0002DE9F84F06460D4617461C469DF828308A
:101EB000002B00F08480C268127812F0200F75D1D8
:101EC0007DE0012F05D9012D73D1BA1E012A09D950
:101ED00002E04FF0010901E04FF00009B9F1000FF5
:101EE00002D169E04FF00109002B32D096F84B3255
:101EF000002B14BF4FF0020B4FF0000B96F84A3244
:101F0000032B26D8DFE803F0020B141D11205946DD
:101F100001F060F91020594601F05CF919E0122037
:101F2000594601F057F91320594601F053F910E0D2
:101F30001E20594601F04EF91D20594601F04AF97C
:101F400007E01F20594601F045F91A20594601F0D3
:101F500041F98DB917B1012F07D00DE0214BC3F81E
:101F60000080043BC3F8008019E01F4BC3F80080D9
:101F7000043BC3F8008012E0012D10D1022F08D0DD
:101F8000032F0CD1194BC3F800A00433C3F800A0F1
:101F900005E0174BC3F80080043BC3F8008086F8C7
:101FA0004A7286F84B424846BDE8F88F0020BDE8EB
:101FB000F88F0020BDE8F88F4846BDE8F88F002C68
:101FC00040F203220CBF4FF41978904640F20362AE
:101FD00040F26461002C0CBF8A469246002D7FF4CB
:101FE00072AF6EE704A004400CA0044000D004408F
:101FF0002CB0044070B582B004469DF818000D4620
:1020000029B92F490E6846F040060E6006E0012906
:1020100004D12B490E6846F080060E6084F84922F0
:10202000002184F851123AB9636920221A7022689B
:102030001170E269117011E06269002837D12DE05A
:102040005B00DBB21370E2694300DBB205E04000E5
:10205000C0B21070E2695B00DBB213700023009322
:10206000204629469DF81C209DF82030FFF718FFD8
:1020700020461449099AFFF7BDFE204629469DF8DF
:102080002820FFF7EBFD94F849321BB9A3688022A2
:102090001A7012E0A368C0221A700EE0202111709D
:1020A00022685B00DBB21370E2690023D5E72821C8
:1020B000117022689842C3D8C9E702B070BD00BF52
:1020C00034800440006CDC022DE9F04F83B082467E
:1020D0008B4690F84A32032B4BD8DFE803F02D30C3
:1020E00002051E261D242CE01F261A2429E0204666
:1020F000494601F03DF82B46013B7FF4FDAF2046F9
:10210000414601F035F82B46013B7FF4FDAF3046E8
:1021100001F052F818B9013F17F0FF07E7D100218D
:102120008AF851129AF84A229AF84B320091504696
:102130005946FFF7B5FE1CE01126102401E01226D7
:1021400013249AF84B32002B304614BF0221002191
:1021500001F040F82046012101F00AF82046012153
:1021600001F038F80B274FF00009A0254FF00108C7
:10217000CDE703B0BDE8F08F2DE9F843054688466A
:102180001646994601F0E6F80EB9D5F8686201F0F6
:10219000E1F80746AB681A7812F0200F0ED0B4228F
:1021A0001A7032E0EC68247814F0200F06D1002376
:1021B00085F84932AB68B0221A7006E0002EF1D0E3
:1021C00001F0C8F8C01B8642ECD8AB681B7813F04E
:1021D000200F0ED128464146FFF776FFEB681B78AB
:1021E00013F0200F05D1002385F84932AB68B022E7
:1021F0001A70AB681B7803F0200303F0FF0023B9CB
:10220000042385F85132BDE8F88395F84832013B44
:10221000DBB2012B38D800F02FFFB8F1000F03D04C
:10222000B8F1010F03D005E01A4B1B7804E01A4BFC
:102230001B7801E0174B1B78834228DB0F2804DC56
:10224000012089F80000BDE8F883B8F1000F03D041
:10225000B8F1010F08D00FE0A0F11002D2B20D4B7F
:102260001A700120BDE8F883A0F11002D2B20A4B27
:102270001A700120BDE8F883A0F11002D2B2054B1C
:102280001A700120BDE8F8830120BDE8F883012021
:10229000BDE8F88318E400E019E400E003694900B0
:1022A00083F83C1103690122C3F84422002303711F
:1022B000026982F8513270472DE9F04383B0054638
:1022C00014461F4600238DF80730D0F84432002B07
:1022D00000F0C7800FB9D0F86872EB6812221A704C
:1022E00028463A460DF10703FFF746FF002800F0A5
:1022F000B88095F848321BB19DF80720002A53D0CA
:1023000001F028F88146012385F8513285F85042C2
:1023100000264FF002082AE02B69AA1992F83C2106
:102320001A70EC68217811F0020FFBD084F800805D
:10233000EB681978C9B211F0100F08D0072285F8A0
:10234000512210221A70AB6880221A7089E011F0B5
:10235000010F0BD01EB9052385F8513202E0062388
:1023600085F85132AB6880221A707AE00136D5F8D0
:1023700044329E4207D2002FCED000F0EBFFC9EBD3
:1023800000008742C8D8D5F84432B3428CBF04233A
:10239000002385F8513295F85032012BAB680CBF01
:1023A0008022B0221A705CE05A1ED2B2012A58D89C
:1023B000012285F8512285F850420022C5F84022BA
:1023C000022B14D1D5F84432042B18D80FE013682F
:1023D0009B6833B9136800210120187259729972F1
:1023E000D972136800221A765A769A76DA76AB6832
:1023F000F0221A702B6995F83C211A7031E0012304
:1024000085F85A32D5F8642205F59F70D5F8444214
:10241000033C11680B6800230860116801200871F3
:102420004B711168CB71116808724B728B72CB7251
:1024300011686042C8601068C18BA1B2C183126884
:10244000D08AD182D5F864222969106804690161B3
:1024500010680375437510688371B1F1804FB9D36B
:10246000B5E703B0BDE8F0832DE9F04383B004463F
:1024700016469DF828700B9D00208DF80700002B54
:1024800000F04D81B3F5827F03D3082384F85132E5
:1024900045E1C4F854320023C4F83431C4F838316B
:1024A0000DB9D4F86852E36812221A7020462A4601
:1024B0000DF10703FFF760FE002800F0308194F86B
:1024C000483223B19DF80720002A00F0958000F0E3
:1024D00041FF8046022384F8513284F85072236908
:1024E000720042F00102D2B21A70E268137813F05F
:1024F000020FFBD002231370E2681378DBB213F0F3
:10250000100F08D0072384F8513210231370A368EA
:1025100080221A7003E113F0010F06D0052384F81E
:102520005132A36880221A70F9E0032384F85132F3
:10253000D4F85432012BA3680CBFA822A0221A7031
:1025400023691B780226002745E00B7813F0020F61
:10255000FBD00E70002D00F0AA8000F0FBFEC8EB4F
:10256000000085428CBF00230123D4F838110231CA
:10257000D4F85422914205D03BB194F8592222B9A3
:1025800000E03B46A26882F80090D4F8381101318F
:10259000D4F85422914280F09F80002B00F091806B
:1025A00094F85922002A40F0AA808AE0042284F894
:1025B000512201E084F8517294F85022012A06D188
:1025C0002022013A7FF4FDAFA2688021117023B16F
:1025D000012384F859324FF0A809D4F83821D4F8EF
:1025E00054329A4280F09B8094F85132DBB2032B34
:1025F00040F09580E168A8E75A1ED2B2012A00F2A5
:102600008E80022284F8512284F85072934244D181
:10261000D4F85432042B40D9012384F85A32D4F828
:10262000643221691868026800220160186802712A
:1026300042711868C271B1F1804F02D31A68926872
:1026400032B91A6800210120107251729172D17250
:102650001A680023137353739373D373D4F86422EB
:1026600004F13005D4F85402013811680F690D6186
:10267000116801250D754B7511688B7111680D720C
:102680004B728B72CB721368414299611368D98B7C
:1026900081B2D9831368DA8AD982A368F0221A70CA
:1026A0002369720042F00102D2B21A7037E0D4F806
:1026B00038210232D4F854329A423FF462AF3B469A
:1026C00063E722691178D4F83821501CC4F8380126
:1026D000224482F830107AE784F85972A268B02157
:1026E000117022691178D4F83821501CC4F83801CF
:1026F000224482F83010002B3FF45CAF56E784F898
:102700005972A268B021117022691178D4F8382169
:10271000501CC4F83801224482F8301046E703B058
:10272000BDE8F083036993F85132043B042B0CD8C5
:10273000DFE803F0091005070300012070470320BC
:10274000704704207047042070470079003018BF9C
:10275000012070470220704790F8513213F0FF0FAC
:102760001BD090F85132DBB2052B18D090F85132C3
:10277000DBB2062B15D090F85132DBB2072B12D00A
:1027800090F85132DBB2042B0FD090F85102C0B256
:10279000082814BF00200120704701207047012045
:1027A000704701207047012070470120704700BF2B
:1027B00070B50446154600F0CDFD0DB9D4F8685249
:1027C00000F0C8FD06462046FFF7C6FF00283AD1B4
:1027D000002DF8D000F0BEFD801B8542F3D800F03C
:1027E000B9FD801B854210D894F84832022B0CD1D9
:1027F00094F85A3213F0FF0F07D02046FFF7ACFFD2
:102800000028FAD0042384F8513294F85132DBB214
:10281000012B09D094F85132DBB2022B04D094F88A
:102820005132DBB2032B02D1042384F851328023CE
:10283000013B7FF4FDAF94F8513213F0FF0F14BF4A
:102840000020012070BD002DDFD0C8E7F8B5074695
:102850000E461546069C084611461A462346FFF7C3
:102860002BFD304629462246FFF7A2FF3846FFF7E8
:1028700059FFF8BD70B582B004460D461E468BB1B7
:102880009DF8183000930799019129463346FFF7C8
:10289000EBFD20462946079AFFF78AFF20B1D4F8BE
:1028A000380102E0002000E0002002B070BD00BF4F
:1028B000D0F83421D0F838319A4208D2D0F83431E7
:1028C0005A1CC0F83421184490F8300070474FF07B
:1028D000FF30704708B50069FFF7EAFF08BD00BF89
:1028E000D0F83421D0F838319A423DBFD0F8343195
:1028F000C01890F830004FF0FF30704708B50069FD
:10290000FFF7EEFF08BD00BF38B50446C268157872
:10291000EDB281680B78DBB213F0200F00F0C381B9
:1029200013F0100F00F0058190F85A32DBB2022B41
:1029300004D090F85A32DBB2032B4CD1D4F8641295
:102940000B689B8B03F080039BB2002B00F0858209
:1029500094F85A32DBB2022B40F07F8273E2137894
:1029600013F0800FFBD00A79B54B1A70002384F85E
:102970005A32D4F84432013BC4F840322369D4F8C7
:102980004022224492F83C211A7020E0AD4B1A6894
:102990000B7901219940114219D0AB4A1370D4F838
:1029A00064321A79A94B1A70002384F85A3215F050
:1029B000100F0CD0072384F85132E36812221A70EA
:1029C000A36880221A700023C4F8403238BDE3683F
:1029D00002221A7038BD90F85132DBB2012B56D169
:1029E00015F0100F0DD0002380F85A32072180F81F
:1029F000511212211170826880211170C0F840328A
:102A000038BD15F0010F0FD0002380F85A32D0F8EE
:102A100040321BB9052380F8513202E0062380F8CA
:102A2000513280230B702EE0D0F840320133C0F8D1
:102A30004032D0F8442293420AD3002380F8513226
:102A400090F85032012B0CBF8023B0230B701AE09A
:102A500090F85A32DBB2012B0ED1022380F85A32A1
:102A6000F1230B70D0F864321A79794B1A7003692C
:102A700090F83D211A7006E00369D0F84022024424
:102A800092F83C211A70E36802221A7038BD90F85F
:102A90005132DBB2022B36D115F0100F08D00723CC
:102AA00080F8513212231370836880221A7038BD67
:102AB00015F0010F05D0052380F8513280230B70EB
:102AC0001DE090F85A32DBB2012B0CD1022380F8C2
:102AD0005A32E1230B70D0F864321A795C4B1A70C9
:102AE00003691B780BE0032380F85132D0F854328D
:102AF000012B0CBFE823E0230B7003691B78E3680C
:102B000002221A7038BD90F85132DBB2042B0AD180
:102B100090F85032012B0CBF8023B0230B70C36898
:102B200002221A7038BD80230B70C36802221A700B
:102B300038BD90F85A32DBB2022B04D090F85A32EA
:102B4000DBB2032B56D1D4F864321A68928B02F0B0
:102B5000800292B2002A00F0918194F85A22D2B2F7
:102B6000022A40F08B817FE11A79354B1A700023DD
:102B700084F85A3294F85132DBB2042B1CBF002384
:102B800084F85132A368B0221A70D4F85432013B51
:102B9000C4F83831D4F838315A1CC4F838212269C5
:102BA0001278234483F8302094F85032012B1DD141
:102BB0002023013B7FF4FDAFA36880221A7015E04B
:102BC000204A12681B790121994011420ED01F4AF8
:102BD0001370D4F864321A791B4B1A70002384F8EE
:102BE0005A3284F85132A36880221A70E3680222B4
:102BF0001A7038BDD0F838210232D0F854329A42D7
:102C000000F0438190F85132DBB2042B04D190F8EC
:102C10005932002B00F03981D4F838210132D4F830
:102C200054329A4280F03F8194F85132DBB2042B47
:102C300040F02E8194F85932002B40F0348127E186
:102C40001C8000402C8000401F8000401E800040FF
:102C50001B800040002384F85132A368B0221A7010
:102C6000D4F838315A1CC4F8382122691278234428
:102C700083F8302094F85032012B06D12023013BF9
:102C80007FF4FDAFA36880221A7094F85132DBB252
:102C9000042B04D194F85932002B00F00E81E36824
:102CA00002221A7038BD15F0100F08D010231370CF
:102CB00015F0400F06D1C36802221A7038BD15F016
:102CC000400F60D094F85132DBB20A2B04D1D4F813
:102CD0005C32002B40F0F58015F0040F1ED0092364
:102CE00084F851320023C4F84432A368D0221A7009
:102CF00023691B785B0884F85232D4F8603203B140
:102D00009847D4F844320BB984F83C31236994F8DD
:102D10003C211A700123C4F8403230E0002384F8CB
:102D2000583294F84A32012B05D112206949032206
:102D300000F090FA15E02BB911206649032200F04B
:102D400089FA0EE0022B05D11E206349032200F010
:102D500081FA06E0032B04D11F205F49032200F013
:102D600079FA0A2384F851320023C4F83831A36871
:102D7000C0221A7023691B785B0884F85232E3681A
:102D800002221A7038BD13F0100F20D015F0010F79
:102D900015D1D0F84022D0F844329A4208D2D0F867
:102DA00040325A1CC0F84022034493F83C2100E012
:102DB000002223691A70A368D0221A703FE0C02352
:102DC0000B7003691B78002380F8513237E090F8CC
:102DD0005132DBB20A2B32D1002380F8583290F8FE
:102DE0004A32012B05D112203A49032200F032FA6F
:102DF00015E02BB911203749032200F02BFA0EE021
:102E0000022B05D11E203449032200F023FA06E0EC
:102E1000032B04D11F203049032200F01BFA236941
:102E20001B78DAB2D4F83831B3F5817F07D8D4F8FB
:102E30003831591CC4F83811234483F83020E36832
:102E400002221A7038BD0A79244B1A70A368F02246
:102E50001A70032384F85A32B9E594F85A32DBB277
:102E6000032B7FF493AD7AE51A791C4B1A70A36893
:102E7000E8221A70032384F85A32B7E694F85A22EB
:102E8000D2B2032A7FF49CAE6EE6E8230B70C3E651
:102E9000D4F838315A1CC4F83821226912782344F6
:102EA00083F83020F1E6002384F8593294F8513247
:102EB000DBB2042B7FF4CEAECFE6012384F8593287
:102EC000EDE60023C4F83431D4F83801D4F85C328C
:102ED000984701E7A52F0000B52F00001F80004094
:102EE00008B502480021FFF70FFD08BD5488FF1FF9
:102EF00008B502480121FFF707FD08BDC08AFF1F82
:102F000010B50446C3681B7813F0200F24D10023AA
:102F100080F8513290F84A32012B03D1122000F090
:102F2000CDF80FE01BB9112000F0C8F80AE0022B21
:102F300003D11E2000F0C2F804E0032B02D11F20B1
:102F400000F0BCF8D4F85C3253B30022C4F834214A
:102F5000D4F83801984710BD90F858320133DBB2ED
:102F600080F85832012B03D890F84932012B17D042
:102F700094F84A32012B03D1122000F09FF810BDC3
:102F80001BB9112000F09AF810BD022B03D11E20AE
:102F900000F094F810BD032B02D11F2000F08EF832
:102FA00010BD00BF08B502480021FFF7A9FF08BD0A
:102FB0005488FF1F08B502480121FFF7A1FF08BD93
:102FC000C08AFF1F70B50B4E30460021FEF72EFE63
:102FD000094D0A4C30462946224604F06BFF084E44
:102FE00030460121FEF722FE30462946224604F0F3
:102FF00061FF70BDB098FF1F011C00003C88FF1FDF
:103000009C98FF1F024B1A6801321A60704700BF7C
:10301000C498FF1F08B50D4C236813F4802F01D00E
:1030200000F010FB236813F4806F01D001F03EFE26
:10303000236813F4006F01D002F0EAF9236813F457
:10304000805FE9D002F0A2FCE6E700BF34800440D4
:1030500008B5FFF7DFFF00BF1022014B1A80704751
:1030600000200540704700BF024A136818441060F2
:10307000184670472C8DFF1FEFF31383ABB9EFF3A6
:103080001083ABB9EFF3058323B10F2B05D9094AA0
:10309000985C03E04FF4807000E00020EFF31183B0
:1030A0003BB1834238BF184670474FF0FF3070473E
:1030B00000207047F0E300E0704700BF1D4B03EBBA
:1030C000C000436803F14042A2F592227C2A18D93D
:1030D00003F14042A2F594227C2A14D903F1404224
:1030E000A2F596227C2A10D903F14042A2F598223B
:1030F0007C2A0CD903F14042A2F59A227C2A08D9F5
:1031000070470D4906E00D4904E00D4902E00D4904
:1031100000E00D4972B61A6822F0877222F48032FC
:1031200042F080721A60C3F38403084A41F82320F6
:1031300062B67047B08C0000308DFF1F688DFF1F96
:10314000B88DFF1FE88DFF1F088EFF1FB9300000EC
:10315000044B00221A6004490A60044A10601022DD
:103160001A60704714D0034004D0034000D00340DD
:1031700021281ED80F4B53F8303093F8802212F0DC
:10318000FF0F08D019B1012283F880207047012277
:1031900083F800217047074B03EBC000436821B15F
:1031A0001A6842F003021A6070471A6822F002029D
:1031B0001A607047B08C0000212806D8044B53F8E1
:1031C000303093F80002C0B270470020704700BF53
:1031D000B08C000021283AD81D4B03EBC0035B687C
:1031E000012919D0042925D0194A52F8302000208D
:1031F00082F8800219B94FF480721A607047022970
:1032000003D140F203121A60704703290CBF4FF438
:10321000817200221A6070470D4A52F83020012155
:1032200082F880124FF4A2721A601A6822F020020B
:103230001A607047064A52F83020012182F8801245
:103240004FF4A2721A601A6842F020021A607047A6
:10325000B08C000070B50D46212861D8042A5FD8D3
:10326000DFE802F00709050B03000B2306E00A2341
:1032700004E0082302E00C2300E009231E04294B8C
:1032800003EBC0035C68236813F4E06F02D10021F4
:10329000FFF7A0FF244B254AC3F89C21244AC3F81A
:1032A000A021244AC3F8A421234AC3F8A821234A11
:1032B000C3F8AC2104F14043A3F592237C2B18D929
:1032C00004F14042A2F594227C2A14D904F140432F
:1032D000A3F596237C2B10D904F14043A3F5982342
:1032E0007C2B0CD904F14043A3F59A237C2B08D9FD
:1032F00070BD134906E0134904E0134902E0134985
:1033000000E0134972B6236823F470232360C4F3EA
:10331000840241F8225043F080731E43266062B657
:1033200070BD00BFB08C00000082FF1F1188FF1F1E
:10333000E587FF1FB987FF1F8D87FF1F6187FF1F6D
:10334000308DFF1F688DFF1FB88DFF1FE88DFF1F99
:10335000088EFF1F72B60C4B1B680C4A12680C4992
:10336000096862B611F0806F02D0322B88BF01323B
:10337000C3F5BB33FF330749A1FB03039B094FF49C
:103380007A7000FB0230704718E000E0C498FF1F1D
:1033900004ED00E0ABAAAAAA38B50546FFF7DAFFAC
:1033A000044625B938BD013D0AD004F57A74FFF70B
:1033B000D1FF001BB0F57A7FF5D201F0A5F8F6E752
:1033C00038BD00BF10B5264B4FF400021A604FF015
:1033D00080721A604FF000721A604FF080621A60BB
:1033E0004FF000621A6000201E4B18604BF6FF7110
:1033F0000433196028231C4A136008321360083212
:103400001360083213600832136008321360083208
:103410001360083213600922144C226004F58054B2
:1034200004342060043421600434236008342360B1
:10343000143C226004F5FE24043420600C48016032
:103440000C490B6008310B600B4B1A6001F07EF8E1
:103450004FF4C870FFF7A0FF00F074FC10BD00BF70
:1034600008E100E0048003400C800340008003403A
:1034700008800B400C800B4000800B4030B40E4B9A
:103480001B7843F002020D4C04EBC20460600C4850
:10349000007800280CBF8824C82444EA0141074D65
:1034A00045F8321080F00100054A107083F00103E6
:1034B000014A137030BC70473099FF1F0080FF1F16
:1034C000A999FF1F10B4431E032B11D872B60A4AE4
:1034D00052F8230050B14268074941F82320074AB7
:1034E00032F813400188611A22F8131062B600E026
:1034F00000205DF8044B70472099FF1FC49BFF1FFD
:10350000013803280DD872B6074B53F820302BB181
:10351000002001305B68002BFBD100E0002062B688
:1035200070470020704700BF7499FF1F38B572B60E
:1035300001231B491B4C5A1812F8012C12F0080FDA
:1035400024D09A0054F832506DB9164B03EBC201E7
:1035500008304860144943F83210144B1A78013A85
:103560001A7062B638BD42F0010254F832506DB99B
:103570000C4B03EBC201083048600D4943F8321090
:103580000A4B1A78013A1A7062B638BD0133052B1E
:10359000D1D162B60022054B1A7000F037FC38BD5D
:1035A000F88D00000080FF1F880040009E99FF1FDB
:1035B000C800400010B4431E032B37D8400140F030
:1035C00010001C4A104472B61B4AD25C032A09D868
:1035D000DFE802F019021B050830022216E008306D
:1035E000042213E0154A52F823201AB9134A42F86C
:1035F000231003E0124A52F823205160104A42F887
:10360000231062B612E0032200E005220A4CE254C5
:1036100001F10803436000F00803002B0CBF88236E
:10362000C8230A8843EA0243036062B65DF8044B8C
:10363000704700BF0080FF1FDC98FF1F7499FF1FB9
:103640008499FF1F2DE9F84FA34CDFF8E092DFF8D3
:10365000E0A2DFF8E0B22578EDB215F0040F1DD03E
:103660009E4B1B7813F0FF0F16D09D4B1B7803F079
:10367000FF022BB1531EDBB2994A137003B900BE8F
:10368000984B1B7803F0FF0233B1531EDBB2954A0F
:1036900013700BB900F016FD0423237015F0080F0A
:1036A00000F0E48299F80030DBB21D0940F021827D
:1036B0008D4D9E0805EBC6035A6855F83630C3F3A6
:1036C0008303013B0C2B00F21082DFE813F0CB01E7
:1036D000CB010E020E020E020E020E020E02E801D5
:1036E0000E020E020E020D00804913680B60526834
:1036F0004A607F4A45F8362000227E490A607A49AE
:103700000A618A6101217C4A11709BB240F2816298
:10371000934218D8B3F5D06F2ED2B3F5817F00F065
:103720001E8106D8802B00F0C980822B00F0CC804F
:1037300066E140F20232934200F02681B3F5A06FB9
:1037400000F062815CE142F22102934200F0868146
:1037500007D8B3F5086F00F0AB80B3F5106F11D048
:103760004EE142F22122934200F0418142F22132A5
:10377000934200F0498143E1604B5D68002D40F0C9
:10378000188130E1594B9A78544B1A70564D05F117
:1037900080062B6A13F0800F03D0686A083800F0A7
:1037A00035FB0835B542F4D1DFF88C810026374669
:1037B000534AB05828B1456800F028FB0DB128469F
:1037C000F9E700234E4973504E4AB3504E4BF05820
:1037D00028B1456800F01AFB0DB12846F9E700232F
:1037E00049497350494AB35028F8023F484BFB5CA3
:1037F000023B032B0AD8DFE803F002060206002290
:10380000434BDA5502E00122414BDA5501370436C9
:10381000102ECDD100223F4B1A7001253E4EDFF80D
:103820001C81314F05EB080313F8013C06F8043BFB
:1038300013F0080F2DD000F0C9FA48B1A90007EB2A
:10384000451200F108035360344A47F8312007E07D
:10385000AB00002247F833202E4B1A7801321A7041
:1038600000F0B4FA58B1AB0043F0010307EBC30119
:1038700000F108024A601E4A47F8332009E0AB0015
:1038800043F00103002247F83320224B1A7801321B
:103890001A70AA0042F00201002347F8313042F0CA
:1038A000030247F8323001351D4B9E42BAD11EE269
:1038B0000A4B1B781B4D2B700127AAE0194D0023E2
:1038C0002B706B700227A4E0084B9B88042B37D920
:1038D0000F22154B1A70C1E080200740A899FF1FE6
:1038E0003199FF1FAA99FF1F0080FF1F9499FF1FA6
:1038F000C8004000C898FF1FA999FF1FFC8D000059
:103900002099FF1FCC98FF1F7499FF1F8499FF1FF8
:10391000DC98FF1F9E99FF1FC420074088004000CD
:10392000D4200740A099FF1FC020074090200740E7
:103930009420074098200740C29BFF1FF88D00008D
:10394000A04A0021117051709F4A12F8233013F0E1
:10395000020F5CD09B4D01232B70022759E09B4B3B
:103960009B8803F07F03042B02DC984A52881AB12B
:103970000F22954B1A7071E0934A12F8231021F030
:10398000020102F82310B2E1904B9B8803F07F0301
:10399000042B02DC8D4A52881AB10F228A4B1A700E
:1039A0005CE0894A12F8231041F0020102F823106A
:1039B0009DE1864B5E889F88854BA3F10C021146E2
:1039C00033F80C0CB04209D133F80A0CB84205D1D7
:1039D000360A032E0CBF2F7817891AE00D690C33B5
:1039E0000C32002DEBD10F22774B1A7036E0794B59
:1039F0001A68794B1A60754B9A78784B1A7076E191
:103A00000F22714B1A7029E000273D4601E0022782
:103A10006C4D6E4BDB889F4228BF1F46402F34BF42
:103A20003E46402628463146FFF728FD3544BF1B59
:103A300003D13F2E00F2608110E0402F34BF3E469C
:103A4000402628463146FFF719FD3544BF1B01D1FA
:103A50003F2E03D9624B1D60624B1F8001238AF801
:103A6000003042E0594B198842F22103994212D1A9
:103A70005D4BD81D12F8011B03F8011F8342F9D1D9
:103A80005A4B1B68862B02D10F22594B1A7000200B
:103A90000146FFF7F3FC574B45F8363025E0504B15
:103AA0001E68BEB14F4FB7F80080B8F1400F34BF69
:103AB0004546402530462946FFF7E0FCC5EB0803A4
:103AC0009BB23B800BB9402D01D1354400E000256D
:103AD000434B1D603D4B1B88B3F5A06F05D13B4B9D
:103AE00000225A709B788BF8003001238AF800304E
:103AF000B9E0414E9F0806EBC708D8F80420A2F1B0
:103B00000800013DEDB213F0080F47D000F07EF938
:103B10003A4B53F825304BB35A68384941F82520C1
:103B200003F10802C8F80420354A525D032A12D86E
:103B3000DFE802F002060A0E0321314A51550AE07D
:103B400002212F4A515506E005212D4A515502E028
:103B500004212B4A515518F0080F0CBF8822C822A7
:103B60001B8842EA034346F837307CE0244B5B5D18
:103B7000032B0BD8DFE803F0777702060022204BF7
:103B80005A5570E001221E4B5A556CE018F0080F90
:103B90000CBF022203221A4B5A5564E056F8373004
:103BA0001B0C22F8083C002B55D0002322F8063CC1
:103BB00042F8043C134B53F825302BBB114B43F810
:103BC000250025E0A099FF1FC02007409499FF1F02
:103BD000088E0000C498FF1FD49BFF1FB899FF1FD9
:103BE000C898FF1F9C99FF1FCB9BFF1FCC9BFF1FFB
:103BF0003199FF1FC80040000080FF1F7499FF1F0C
:103C0000DC98FF1F2099FF1F3F4B53F82530586069
:103C10003D4B43F825003D4B33F8151032F8082C86
:103C20000A4423F8152000F0D1F860B100F1080330
:103C3000C8F8043018F0080F354B364A08BF134651
:103C400046F837300FE0002346F83730324B1A7809
:103C500001321A7007E018F0080F2D4B2D4A08BFEB
:103C6000134646F8373008232370F4E415F0010FAB
:103C700022D02A4902230B700022294B1A70294BAB
:103C800024481860284C5C6098602848D8601A6105
:103C90009A610D20264B1870FF23264803700838C0
:103CA000037018300270244A13709F22234B1A703D
:103CB00001230B70BDE8F88F15F0800F05D00D22A1
:103CC0001B4B1A708022403B1A7015F0020F06D071
:103CD000184B1A78D2B21A700222083B1A7015F0EB
:103CE000100F0ED01022164B1A70BDE8F88F00206E
:103CF0000146FFF7C3FBB1E628460021FFF7BEFBF4
:103D0000ACE6BDE8F88F00BFCC98FF1FC49BFF1F37
:103D1000C8004000880040009E99FF1F9420074083
:103D20003099FF1F0080FF1FE098FF1F3499FF1F8D
:103D3000C0200740882007408C200740842007408F
:103D40008020074008B501F095FE00231B491A4664
:103D50005A50C81842600833882BF9D1184B1A689A
:103D600042F480221A60154BC3F30721154A1170E3
:103D7000C3F30741143211701B0E04321370FF237A
:103D8000343A137008321370783A13700123843276
:103D9000137000216C3211707C3A137070220A4B40
:103DA0001A704FF40072A3F241331A60102203F12B
:103DB000C04303F5C8231A7008BD00BF0080FF1F71
:103DC000348004409C20074049E400E072B60D4B6B
:103DD0001A68B2FA82F30B2B02D962B60020704740
:103DE0004FF00041D94022EA010206490A6062B65A
:103DF000054903EBC303DB00C8180022CA50426028
:103E0000704700BF108EFF1F0084FF1F08B50F4BC7
:103E1000C31A0F4AA2FB03131B090B2B14D80D4A1C
:103E200012783AB10C4A127812F0FF0F02D0FFF765
:103E30007DFB08BD72B6094A4FF0004121FA03F339
:103E400011681943116062B608BD00BF0084FF1FEE
:103E5000398EE3389E99FF1FA899FF1F108EFF1F10
:103E600010B5134B1B6853B9124B1B7813F0FF0F9F
:103E700018D00320FFF726FB0D4B1860A8B10C4BA0
:103E8000186843885A1C03441C7A03889A4206D354
:103E9000FFF7BCFF0022064B1A60204610BD42808F
:103EA000204610BD4FF0FF3010BD4FF0FF3010BD69
:103EB000B499FF1FA899FF1F08B50D4B1B6883B964
:103EC0000C4B1B7813F0FF0F08D00320FFF7FAFA12
:103ED000074B186028B94FF0FF3008BD4FF0FF3096
:103EE00008BD034B1B685A881344187A08BD00BFED
:103EF000B499FF1FA899FF1F044B9888044B1B68B7
:103F00001BB11A885B88D31A18447047C49BFF1FE3
:103F1000B499FF1F10B50B4B1B7813F0FF0F0FD098
:103F2000094B186820B1FFF771FF0022064B1A6099
:103F300003242046FFF7C6FA10B1FFF767FFF8E742
:103F400010BD00BFA899FF1FB499FF1F2DE9F047CE
:103F500004460122374B1A700E46002964D0DFF860
:103F6000E080DFF8E0909A46334FD8F8003083BB0A
:103F700099F8003013F0FF0F06D100222D4B1A7074
:103F80004FF0FF30BDE8F0874AF2F9250420FFF733
:103F9000B7FA07280AD801238AF80030FFF716FF7E
:103FA000C8F80000A8B900238AF80030013D01D00C
:103FB0003B7833B10122204B1A704FF0FF30BDE83F
:103FC000F08700F0A1FA99F8003013F0FF0FDDD16F
:103FD000D3E700233B70D8F800104A88C2F14005AF
:103FE000AE4238BF354602F108030B442A444A80EA
:103FF000761B3DB1254414F8012B03F8012BAC428C
:10400000F9D100E025464B883F2B07D940230B8090
:104010000420FFF7CFFA0023C8F800300522074B31
:104020001A700EB12C46A0E70020024B1870BDE8B4
:10403000F08700BFAB99FF1FB099FF1FAA99FF1F20
:10404000AC99FF1FA899FF1F00B583B002AB03F81E
:10405000010D18460121FFF779FF03B05DF804FB5D
:1040600010B5144B1B7813F0FF0F21D00122124B17
:104070001A70124B196851B10024114B1C704B88F7
:104080000B800420FFF796FA0C4B1C600DE0FFF745
:104090009DFE014630B10022094B1A700420FFF743
:1040A00089FA02E00122064B1A700022024B1A70B4
:1040B00010BD00BFA899FF1FAB99FF1FAC99FF1F50
:1040C000AA99FF1F08B50E4B1B7813F0FF0F16D1EE
:1040D0000C4B196841B14B880B800420FFF76AFA3A
:1040E0000022084B1A6008BDFFF770FE014618B1A8
:1040F0000420FFF75FFA08BD0122034B1A7008BDC8
:10410000AB99FF1FAC99FF1FAA99FF1F30B472B67D
:1041100099B902688AB103790F2B0ED8274909880B
:10412000194111F0010F08D003F1007303F59063FA
:10413000B2EB431F01D162B63EE0204B1D882946F9
:10414000002341FA03F212F0010F2DD1012202FAED
:1041500003F42543194A158062B6DAB20271184990
:104160000C6844F002040C6004390C6844F002044A
:104170000C60822413490C601A310A7004310A70F1
:1041800006390A7007310A7003F1007303F5906372
:104190005B01036000221A605A609A60DA601A615B
:1041A0005A619A61DA6107E00133102BC9D162B616
:1041B000002303601023037130BC7047BA99FF1FBE
:1041C000408004400080004003790F2B10D8094A3A
:1041D000137072B6084B0279012101FA02F21988B4
:1041E00021EA02021A8062B61023037100230360E1
:1041F000704700BF1A800040BA99FF1F08B5FDF74D
:1042000083FBFCF7A3FE00F07FF9FAE708B503F0A3
:104210008FFE08BD08B503F093FE08BD00B583B05E
:10422000054B1B88ADF8043003685B6801A90222C6
:10423000984703B05DF804FBC08D0000F0B58BB06B
:10424000164622B903681B68C9B298472FE0012AB5
:1042500008BF0A2621B930228DF82520212417E035
:1042600021243746B1FBF6F506FB1515EDB22246C3
:10427000092D94BF30353735EDB20DF1280E72445B
:1042800002F8245CB1FBF7F111B1013CE4B2E9E7BB
:1042900033B1013CE4B20AAB23442D2203F8242CB1
:1042A00003685B6801A92144C4F1220298470BB05E
:1042B000F0BD00BF08B50029BABF49422D23002335
:1042C0000A22FFF7BBFF08BD2DE9F04F85B08046FD
:1042D00014461D469DF838901046194601F0F4FD2D
:1042E00040B9D8F800305B684046674903229847D8
:1042F0000746BEE02046294601F0E6FD012808D128
:10430000D8F800305B68404660490322984707466A
:10431000AFE0204629464FF060425D4B03F0F2FAD1
:1043200040B1D8F800305B6840465A4903229847AC
:1043300007469EE0204629464FF06042564B03F068
:10434000C3FA40B1D8F800305B68404651490322B7
:10435000984707468DE0204629460022002303F0B7
:10436000B3FA28B105F100431D464FF0010A01E000
:104370004FF0000AB9F1000F6CD04FF0000B002293
:10438000464B3FA7D7E900671046194632463B46E1
:1043900003F028F802460B460BF1010B5FFA8BF194
:1043A0008945F1D82CE04E462046294600223C4B58
:1043B00003F018F804460D4603F0AEFAC0B206F159
:1043C00001095FFA89F904AB1E4400F1300306F8D5
:1043D000103C02F0A1FF02460B462046294602F09F
:1043E0004DFE04460D46D145DDD101E04FF0010AF6
:1043F000D8F800305B68404669465246984738E036
:104400002046294602F03CFE04460D4603F084FA9D
:10441000064602F071FF02460B462046294602F08E
:104420002DFE04460D46404631460A225346FFF70C
:1044300005FF07462E238DF80030B9F10F0F34BF6A
:104440004B460F23002BD1D003F1010A5FFA8AFA01
:104450000126A9E7204629460022104B02F010FE53
:1044600003F05AFA014640460A225346FFF7E6FE99
:104470000746384605B0BDE8F08F00BFAFF30080B7
:10448000000000A09999B93FC48D0000C88D0000BC
:10449000FFFFEF41CC8D0000FFFFEFC10000E03FC8
:1044A00000002440AFF3008008B5FFF725FD08BDEC
:1044B00008B5FFF7D5FC08BD08B5FFF7FDFC08BD42
:1044C00008B5FFF7CDFD08BD08B5FFF723FD08BD12
:1044D00008B50846FFF7B8FD08BD00BF08B5084697
:1044E0001146FFF733FD08BD704700BF044B0022A3
:1044F0001A714FF47A7199601A73024A1A60704700
:10450000BC99FF1FD88D000008B50F4B1B78CBB9A5
:1045100001220D4B1A70FFF7EFFC08B1FFF7E4FF23
:1045200000F03AFB08B101F07BFB00F0E7FE08B1B8
:1045300001F018FC01F0B4F908B101F0B5FC00225B
:10454000014B1A7008BD00BFCC99FF1F60223A4B87
:104550001A70E12201331A70384B1B78082B10D1E6
:10456000012203F1804303F56C331A6013233449AD
:104570000B6001F5FF2101F2FC710A60314A136002
:104580001FE00A2B0DD139222F4B1A6013232C491F
:104590000B6001F5FF2101F2FC710A60294A1360EA
:1045A0000FE00C2B0CBF35223D22274B1A60122343
:1045B00023490B6001F5FF2101F2FC710A60214AD9
:1045C0001360224B1B7833B10123214A136002F59B
:1045D0000022136005E000231D4A136002F500224B
:1045E00013601C4B1B78012B06D880231A4A1360DA
:1045F00002F5002213601AE0042B06D88423164A21
:10460000136002F50022136011E0082B06D8852301
:10461000114A136002F50022136008E0102B94BFCA
:10462000862387230C4A136002F5002213600122BF
:104630000A4B1A70704700BF00400740148EFF1FDE
:104640000CB003400CB00B4008B00340CE99FF1FE4
:1046500020B00340158EFF1F24B00340CD99FF1FEB
:1046600030B40023B0FBF2F402FB14041D46092C05
:1046700094BF30343734E4B2CC54B0FBF2F008B11C
:104680000133EFE70D4400226A70934207DD885C36
:10469000CC5C8C54C8540132013B9A42F7DB08468B
:1046A00030BC7047254B1A6842F480621A600023C0
:1046B000234A1370234A1370234A1370234A13703A
:1046C000234A1370234B1B7813B1152B05D008E038
:1046D00040F21332204B1A6003E040F213321F4BBA
:1046E0001A601F4B1B78012B02D0052B05D008E068
:1046F0004FF451721B4B1A6003E04FF451721A4B86
:104700001A60C0F34432194B1A70C0F347125A7042
:1047100000F01F00987204229A700221D9745A7511
:1047200088221A743C22DA704022114B1A704FF41E
:104730000052A3F229331A60704700BF348004404E
:104740005C9AFF1FD599FF1F649AFF1F5D9AFF1F98
:10475000D499FF1F189AFF1F40A0044018C00440BE
:10476000168EFF1F44A004401CC0044000A0064059
:104770002DE400E0164B9B7803F0EC0300F00302FD
:10478000134310F0040F18BF43F01003104A937046
:1047900000F00F03042B04D11346927942F040023B
:1047A0009A710B4B5A7902F0EF0210F0100F18BFFC
:1047B00042F01002064B5A719B7903F0EF0310F0A0
:1047C000200F18BF43F01003014A9371704700BFD8
:1047D00000A0064010B5144B1B6813F4806F21D065
:1047E000124B1B7813F0FF0F06D0104CFFF78CFE16
:1047F000237813F0FF0FF9D14FF400520C4B1A60DD
:1048000000230C4AD37040F203120B490A600431B2
:104810000A600A4A13700A4A13700A4B1B680BB1EC
:1048200001221A7010BD00BF34800440D499FF1FCC
:1048300084E100E000A0064040A004405C9AFF1F15
:10484000D599FF1FD099FF1F10B50446094A137868
:1048500013F0FF0FFBD120460121FEF7BBFC2046E1
:104860000021FEF785FC044B53F83420034B1A60FB
:1048700010BD00BFD499FF1FB08C0000609AFF1FCD
:1048800010B40C4609B140F08000184B1B789842D8
:1048900028D0174A126812F4806F21D003F07F03EA
:1048A000012B02D0052B04D006E00022114B1A6028
:1048B00002E00022104B1A60002C0CBF4422602240
:1048C00000F07F03012B02D0052B05D008E042F455
:1048D0004072084B1A6003E042F44072064B1A60C3
:1048E000024B18705DF8044B704700BF168EFF1F17
:1048F0003480044044A004401CC00440114B1B7889
:1049000098421ED0104A126812F4806F17D013B16B
:10491000152B04D006E000220C4B1A6002E00022A6
:104920000B4B1A6010B1152805D008E040F2133285
:10493000064B1A6003E040F21332054B1A60014B3C
:1049400018707047189AFF1F3480044040A004403C
:1049500018C0044010B50D4B1B6813F4806F12D0C3
:1049600021280CD80A4C0B4B53F83030236001211E
:10497000FEF730FC236800221A70012010BD0020D1
:10498000034B186010BD002010BD00BF34800440F0
:10499000D099FF1FB08C0000114B1B6813F4806F7F
:1049A0001BD0122804D140F202320E4B1A600DE0E7
:1049B000142804D140F202320B4B1A6006E00B4B74
:1049C0005A7B02F0FE025A7300207047074B5A7B55
:1049D00042F001025A73012070470020704700BF67
:1049E000348004400CA0044014C0044000A00640E1
:1049F0002DE9F04107461F4B1B6813F4806F37D039
:104A00001D4B1B680BB101221A701C4B1C78013422
:104A1000402C28BF00241A4D1A4EDFF86C8017E096
:104A2000FEF72AFB40280FDC337913F0800F0FD0FC
:104A30002B780133402B28BF002318F80320D2B273
:104A4000F271DBB22B7003E0FF2801DDFFF75CFDA4
:104A50002B78DBB29C42E3D0FFB20B4B1F550122F7
:104A60000A4B1A70E4B2054B1C70BC22054BDA707D
:104A7000BDE8F08134800440609AFF1F649AFF1FF4
:104A80005D9AFF1F00A00640D899FF1FD499FF1F11
:104A90002DE9F84F0746284B1B6813F4806F49D067
:104AA000264B1B680BB101221A7007EB010B5F4507
:104AB0003DD2DFF89890224EDFF88C80DFF890A08E
:104AC00099F800400134402C28BF00243578EDB21D
:104AD000A54220D1BC2388F80330FEF7CDFA402848
:104AE00011DC98F8043013F0800F10D033780133C4
:104AF000402B28BF00231AF80320D2B288F80720E1
:104B0000DBB2337003E0FF2801DDFFF7FDFC3378F3
:104B1000DBB29D42E1D017F8013B0AF804300122D4
:104B2000084B1A70E4B289F800405F45C8D1BC2236
:104B3000054BDA70BDE8F88F34800440609AFF1F9F
:104B40005D9AFF1FD499FF1F00A00640649AFF1FC3
:104B5000D899FF1F10B5064B1B7813F0FF0F06D036
:104B6000034CFFF7D1FC237813F0FF0FF9D110BDF0
:104B7000D499FF1F064B1B78DBB2064A1278D2B2DB
:104B800093422CBF3F3202F1FF32D01A704700BF70
:104B9000649AFF1F5D9AFF1F054B1878C0B2054B42
:104BA0001B78DBB2984238BF4030C01A704700BF54
:104BB0005C9AFF1FD599FF1F10B4184B1A78D2B218
:104BC000174B1B78DBB29A4218D001333F2B18D811
:104BD0001449C85CC0B2DCB211490C7012490968B2
:104BE000C9B19A4203D300E00023D31A01E0403256
:104BF000D31A1A2B0FDC00230B700CE04FF0FF30A0
:104C000009E0084B1878C0B20021054B1970064B1B
:104C100019680029E8D15DF8044B70475C9AFF1FC2
:104C2000D599FF1F1C9AFF1FD099FF1F094B1A78B7
:104C3000D2B2094B1B78DBB29A4207D00133402B2A
:104C400028BF0023054AD05CC0B270474FF0FF3048
:104C5000704700BF5C9AFF1FD599FF1F1C9AFF1F6A
:104C60000D4B1B6813F4806F14D00C4BDA7802F0F4
:104C7000CB02DA7040225A74DA7842F03402DA70E9
:104C8000074B1A78D2B2074B1A70074B1B680BB14F
:104C900000221A70704700BF3480044000A0064014
:104CA000D599FF1F5C9AFF1FD099FF1F70B43D4B31
:104CB0001B7913F0300F33D072B63A4B9B7D03F063
:104CC000FF022BB9374BDA7940225A7462B627E0DB
:104CD00062B6354B1978C9B2344B1C78E4B2314D09
:104CE000334EEB79D8B24B1C402B28BF0023A34294
:104CF0001CBFF0541946531E13F0FF02F1D1CAB283
:104D0000294B1A702B4B1B6853B1A1422EBFC4EB29
:104D10000101C4F1400409192729C4BF01221A70F6
:104D2000204BDA78D2B212F0800F27D01B7913F023
:104D3000800F23D0204B1C78E4B2204B1B78DBB2D1
:104D40009C4210D017491E4D01E0A3420BD0013305
:104D5000402B28BF00230879E85CC0B2C871087DE9
:104D6000C0B20728F1D9DBB214490B700D4B1B7987
:104D700013F0800F02D07C210A4BD97012F0400F43
:104D80000ED0084B1B7913F0400F09D000220D4BB9
:104D90001A700D4B1B6803B11A703C22014BDA707C
:104DA00070BC704700A006405C9AFF1FD599FF1F9A
:104DB0001C9AFF1FD099FF1F649AFF1F5D9AFF1F67
:104DC000D899FF1FD499FF1F609AFF1F254B1A68BF
:104DD00042F400621A600023234A1370234A1370BE
:104DE000234A1370234A1370234A1370234B1B78F2
:104DF000092B02D01A2B05D008E040F21332204BC9
:104E00001A6003E040F213321E4B1A601E4B1B78EF
:104E10000A2B02D01F2B05D008E04FF451721B4B18
:104E20001A6003E04FF45172194B1A60C0F3443218
:104E3000184B1A70C0F347125A7000F01F00987296
:104E400004229A700221D9745A7588221A743C225D
:104E5000DA704022104B1A704FF40042A3F22B3349
:104E60001A60704734800440D89AFF1F6D9AFF1F64
:104E7000E09AFF1FD99AFF1F6C9AFF1F178EFF1F22
:104E80000CB0044004D00440188EFF1F10B0044042
:104E900000D0044000B006402FE400E0164B9B78A1
:104EA00003F0EC0300F00302134310F0040F18BFEB
:104EB00043F01003104A937000F00F03042B04D149
:104EC0001346927942F040029A710B4B5A7902F0E4
:104ED000EF0210F0100F18BF42F01002064B5A718B
:104EE0009B7903F0EF0310F0200F18BF43F010037D
:104EF000014A9371704700BF00B0064010B5224BC5
:104F00001B6813F4006F3ED0204B1B7813F0FF0F8B
:104F100006D01E4CFFF7F8FA237813F0FF0FF9D1F3
:104F20004FF400421A4B1A6000221A4BDA701A4BE7
:104F30001B78092B02D01A2B05D008E040F203128F
:104F4000164B1A6003E040F20312154B1A60154B22
:104F50001B7803F07F030A2B02D01F2B05D008E03B
:104F600040F20312104B1A6003E040F203120F4BA1
:104F70001A6000230E4A13700E4A13700E4B1B6802
:104F80000BB101221A7010BD348004406C9AFF1FCF
:104F900084E100E000B00640178EFF1F0CB0044013
:104FA00004D00440188EFF1F10B0044000D004400D
:104FB000D89AFF1F6D9AFF1F689AFF1F10B504460D
:104FC000094A137813F0FF0FFBD120460121FEF7A9
:104FD00001F920460021FEF7CBF8044B53F83420AA
:104FE000034B1A6010BD00BF6C9AFF1FB08C00000D
:104FF000DC9AFF1F10B40C4609B140F08000184B3A
:105000001B78984228D0174A126812F4006F21D0FA
:1050100003F07F030A2B02D01F2B04D006E00022EE
:10502000114B1A6002E00022104B1A60002C0CBFDA
:105030004422602200F07F030A2B02D01F2B05D0F0
:1050400008E042F44072084B1A6003E042F44072F8
:10505000064B1A60024B18705DF8044B704700BF96
:10506000188EFF1F3480044010B0044000D004406C
:10507000124B1B78984220D0114A126812F4006F2C
:1050800019D0092B02D01A2B04D006E000220D4BB8
:105090001A6002E000220C4B1A60092802D01A287C
:1050A00005D008E040F21332064B1A6003E040F2EC
:1050B0001332054B1A60014B18707047178EFF1F93
:1050C000348004400CB0044004D0044010B50D4BB3
:1050D0001B6813F4006F12D021280CD80A4C0B4B1C
:1050E00053F8303023600121FEF774F82368002262
:1050F0001A70012010BD0020034B186010BD002065
:1051000010BD00BF34800440689AFF1FB08C0000BF
:105110000D4B1B6813F4006F13D017280AD140F20F
:1051200002320A4B1A600A4B5A7B42F001025A7350
:1051300001207047064B5A7B02F0FE025A73002092
:1051400070470020704700BF3480044008B004401E
:1051500000B006402DE9F04107461F4B1B6813F4D1
:10516000006F37D01D4B1B680BB101221A701C4B0E
:105170001C780134282C28BF00241A4D1A4EDFF861
:105180006C8017E0FDF778FF40280FDC337913F0CF
:10519000800F0FD02B780133282B28BF002318F85D
:1051A0000320D2B2F271DBB22B7003E0FF2801DDE5
:1051B000FFF7AAF92B78DBB29C42E3D0FFB20B4B8E
:1051C0001F5501220A4B1A70E4B2054B1C70BC2219
:1051D000054BDA70BDE8F08134800440DC9AFF1F93
:1051E000E09AFF1FD99AFF1F00B00640709AFF1F78
:1051F0006C9AFF1F2DE9F84F0746284B1B6813F4E4
:10520000006F49D0264B1B680BB101221A7007EBC7
:10521000010B5F453DD2DFF89890224EDFF88C807D
:10522000DFF890A099F800400134282C28BF002412
:105230003578EDB2A54220D1BC2388F80330FDF7C4
:105240001BFF402811DC98F8043013F0800F10D0B9
:1052500033780133282B28BF00231AF80320D2B259
:1052600088F80720DBB2337003E0FF2801DDFFF789
:105270004BF93378DBB29D42E1D017F8013B0AF8D5
:1052800004300122084B1A70E4B289F800405F45EF
:10529000C8D1BC22054BDA70BDE8F88F34800440D9
:1052A000DC9AFF1FD99AFF1F6C9AFF1F00B00640BF
:1052B000E09AFF1F709AFF1F10B5064B1B7813F082
:1052C000FF0F06D0034CFFF71FF9237813F0FF0FF1
:1052D000F9D110BD6C9AFF1F064B1B78DBB2064A52
:1052E0001278D2B293422CBF273202F1FF32D01A89
:1052F000704700BFE09AFF1FD99AFF1F054B18782F
:10530000C0B2054B1B78DBB2984238BF4030C01AA0
:10531000704700BFD89AFF1F6D9AFF1F10B4184B3B
:105320001A78D2B2174B1B78DBB29A4218D00133ED
:105330003F2B18D81449C85CC0B2DCB211490C70BC
:1053400012490968C9B19A4203D300E00023D31A75
:1053500001E04032D31A1A2B0FDC00230B700CE053
:105360004FF0FF3009E0084B1878C0B20021054B20
:105370001970064B19680029E8D15DF8044B704795
:10538000D89AFF1F6D9AFF1F989AFF1F689AFF1FF8
:10539000094B1A78D2B2094B1B78DBB29A4207D07C
:1053A0000133402B28BF0023054AD05CC0B27047B0
:1053B0004FF0FF30704700BFD89AFF1F6D9AFF1F54
:1053C000989AFF1F0D4B1B6813F4006F14D00C4B01
:1053D000DA7802F0CB02DA7040225A74DA7842F0BE
:1053E0003402DA70074B1A78D2B2074B1A70074BA7
:1053F0001B680BB100221A70704700BF3480044054
:1054000000B006406D9AFF1FD89AFF1F689AFF1FD1
:1054100070B43D4B1B7913F0300F33D072B63A4B5A
:105420009B7D03F0FF022BB9374BDA7940225A7487
:1054300062B627E062B6354B1978C9B2344B1C7896
:10544000E4B2314D334EEB79D8B24B1C402B28BF20
:105450000023A3421CBFF0541946531E13F0FF0251
:10546000F1D1CAB2294B1A702B4B1B6853B1A14220
:105470002EBFC4EB0101C4F1400409192729C4BFA0
:1054800001221A70204BDA78D2B212F0800F27D0A6
:105490001B7913F0800F23D0204B1C78E4B2204BF3
:1054A0001B78DBB29C4210D017491E4D01E0A3428D
:1054B0000BD00133282B28BF00230879E85CC0B249
:1054C000C871087DC0B20728F1D9DBB214490B704E
:1054D0000D4B1B7913F0800F02D07C210A4BD97041
:1054E00012F0400F0ED0084B1B7913F0400F09D07B
:1054F00000220D4B1A700D4B1B6803B11A703C2231
:10550000014BDA7070BC704700B00640D89AFF1F9C
:105510006D9AFF1F989AFF1F689AFF1FE09AFF1F5E
:10552000D99AFF1F709AFF1F6C9AFF1FDC9AFF1F0A
:10553000174B1A6842F480521A600023154A137000
:10554000154A1370154A1370154A1370154A1370D3
:1055500040F21331144A11604FF45171043211605A
:10556000C0F34431114A1170C0F34711517000F07B
:105570001F009072937013742C23D37040220C4B35
:105580001A704FF40032A3F22D331A60704700BF37
:1055900034800440549BFF1FE99AFF1F5C9BFF1F50
:1055A000559BFF1FE89AFF1F08C0044000C006403B
:1055B00031E400E0164B9B7803F0EC0300F00302AB
:1055C000134310F0040F18BF43F01003104A9370F8
:1055D00000F00F03042B04D11346927942F04002ED
:1055E0009A710B4B5A7902F0EF0210F0100F18BFAE
:1055F00042F01002064B5A719B7903F0EF0310F052
:10560000200F18BF43F01003014A9371704700BF89
:1056100000C0064010B5144B1B6813F4805F21D006
:10562000124B1B7813F0FF0F06D0104CFEF76CFFE7
:10563000237813F0FF0FF9D14FF400320C4B1A60AE
:1056400000230C4AD37040F203120B490A60043164
:105650000A600A4A13700A4A13700A4B1B680BB19E
:1056600001221A7010BD00BF34800440E89AFF1F69
:1056700084E100E000C0064008C00440549BFF1FC6
:10568000E99AFF1FE49AFF1F10B50446094A1378F0
:1056900013F0FF0FFBD120460121FDF79BFD2046B3
:1056A0000021FDF765FD044B53F83420034B1A60CD
:1056B00010BD00BFE89AFF1FB08C0000589BFF1F71
:1056C00010B40C4609B140F08000104B1B78984292
:1056D00019D00F4A126812F4805F12D003F07F03D2
:1056E000082B02D100220B4B1A60002C0CBF442265
:1056F000602200F07F03082B03D142F44072054B77
:105700001A60024B18705DF8044B7047198EFF1F2A
:10571000348004400CC00440704700BF10B50D4BEE
:105720001B6813F4805F12D021280CD80A4C0B4B55
:1057300053F8303023600121FDF74CFD236800222F
:105740001A70012010BD0020034B186010BD00200E
:1057500010BD00BF34800440E49AFF1FB08C0000ED
:105760000D4B1B6813F4805F13D00E280AD140F252
:1057700002320A4B1A600A4B5A7B42F001025A73FA
:1057800001207047064B5A7B02F0FE025A7300203C
:1057900070470020704700BF3480044004C00440BC
:1057A00000C006402DE9F04107461F4B1B6813F46B
:1057B000805F37D01D4B1B680BB101221A701C4B48
:1057C0001C780134282C28BF00241A4D1A4EDFF80B
:1057D0006C8017E0FDF750FC40280FDC337913F0A4
:1057E000800F0FD02B780133282B28BF002318F807
:1057F0000320D2B2F271DBB22B7003E0FF2801DD8F
:10580000FEF782FE2B78DBB29C42E3D0FFB20B4B5B
:105810001F5501220A4B1A70E4B2054B1C70AC22D2
:10582000054BDA70BDE8F08134800440589BFF1FBF
:105830005C9BFF1F559BFF1F00C00640EC9AFF1F9B
:10584000E89AFF1F38B505460C4629B115F8010B3B
:10585000FFF7A8FF013CF9D138BD00BF10B5064BDA
:105860001B7813F0FF0F06D0034CFEF74DFE237894
:1058700013F0FF0FF9D110BDE89AFF1F064B1B78FC
:10588000DBB2064A1278D2B293422CBF273202F121
:10589000FF32D01A704700BF5C9BFF1F559BFF1F54
:1058A000054B1878C0B2054B1B78DBB2984238BF65
:1058B0004030C01A704700BF549BFF1FE99AFF1F7A
:1058C00010B4184B1A78D2B2174B1B78DBB29A423D
:1058D00018D001333F2B18D81449C85CC0B2DCB2D1
:1058E00011490C7012490968C9B19A4203D300E00A
:1058F0000023D31A01E04032D31A1A2B0FDC002305
:105900000B700CE04FF0FF3009E0084B1878C0B284
:105910000021054B1970064B19680029E8D15DF884
:10592000044B7047549BFF1FE99AFF1F149BFF1FF6
:10593000E49AFF1F094B1A78D2B2094B1B78DBB2ED
:105940009A4207D00133402B28BF0023054AD05C80
:10595000C0B270474FF0FF30704700BF549BFF1F2D
:10596000E99AFF1F149BFF1F054B1A78D2B2054B13
:105970001A70054B1B680BB100221A70704700BFEC
:10598000E99AFF1F549BFF1FE49AFF1F2F4B1B79BF
:1059900013F0200F23D02D4BDB79D9B22C4B1B7881
:1059A0000133402B28BF00232A4A1278D2B29A42F0
:1059B00004D0294AD154D9B2254A1170274A116816
:1059C00069B1274A1278D2B293422EBFC2EB0303C9
:1059D000C2F140029B18272BC4BF01230B701B4B45
:1059E000DB78DBB213F0800F1CD0184A127912F06A
:1059F000800F17D01B4A1178C9B2194A1278D2B257
:105A0000914203D16C21114AD1700BE00132282A56
:105A100028BF00221449885CC0B20C49C871D2B2B8
:105A20000F490A7013F0400F0ED0084B1B7913F08A
:105A3000400F09D000220D4B1A700D4B1B6803B1AB
:105A40001A702C22014BDA70704700BF00C006406C
:105A5000549BFF1FE99AFF1F149BFF1FE49AFF1F2F
:105A6000559BFF1F5C9BFF1FEC9AFF1FE89AFF1FCF
:105A7000589BFF1F00B585B072B61B4B70221A7081
:105A800041211A4A11700F21013A117080221A70B7
:105A90001A46137813F0800FFBD0154B186862B6C6
:105AA000144B98429CBF00EB8000400001A90A22E1
:105AB000FEF7D6FD9DF804307BB908E001A9595CDA
:105AC00031B19180023201330A2BF7D100E000237B
:105AD00001335B00084A137003E0074A5380012337
